{
  "_format": "hh-sol-artifact-1",
  "contractName": "VotingSystem",
  "sourceName": "contracts/VotingSystem.sol",
  "abi": [
    {
      "anonymous": false,
      "inputs": [
        {
          "indexed": true,
          "internalType": "uint256",
          "name": "electionId",
          "type": "uint256"
        },
        {
          "indexed": false,
          "internalType": "uint256",
          "name": "candidateId",
          "type": "uint256"
        },
        {
          "indexed": false,
          "internalType": "string",
          "name": "name",
          "type": "string"
        }
      ],
      "name": "CandidateAdded",
      "type": "event"
    },
    {
      "anonymous": false,
      "inputs": [
        {
          "indexed": true,
          "internalType": "uint256",
          "name": "electionId",
          "type": "uint256"
        },
        {
          "indexed": false,
          "internalType": "string",
          "name": "title",
          "type": "string"
        },
        {
          "indexed": true,
          "internalType": "address",
          "name": "admin",
          "type": "address"
        }
      ],
      "name": "ElectionCreated",
      "type": "event"
    },
    {
      "anonymous": false,
      "inputs": [
        {
          "indexed": true,
          "internalType": "uint256",
          "name": "electionId",
          "type": "uint256"
        },
        {
          "indexed": false,
          "internalType": "enum VotingSystem.Phase",
          "name": "newPhase",
          "type": "uint8"
        }
      ],
      "name": "PhaseChanged",
      "type": "event"
    },
    {
      "anonymous": false,
      "inputs": [
        {
          "indexed": true,
          "internalType": "uint256",
          "name": "electionId",
          "type": "uint256"
        },
        {
          "indexed": true,
          "internalType": "address",
          "name": "voter",
          "type": "address"
        }
      ],
      "name": "VoteCommitted",
      "type": "event"
    },
    {
      "anonymous": false,
      "inputs": [
        {
          "indexed": true,
          "internalType": "uint256",
          "name": "electionId",
          "type": "uint256"
        },
        {
          "indexed": true,
          "internalType": "address",
          "name": "voter",
          "type": "address"
        },
        {
          "indexed": false,
          "internalType": "uint256",
          "name": "candidateId",
          "type": "uint256"
        }
      ],
      "name": "VoteRevealed",
      "type": "event"
    },
    {
      "inputs": [
        {
          "internalType": "uint256",
          "name": "_electionId",
          "type": "uint256"
        },
        {
          "internalType": "string",
          "name": "_name",
          "type": "string"
        },
        {
          "internalType": "string",
          "name": "_party",
          "type": "string"
        }
      ],
      "name": "addCandidate",
      "outputs": [],
      "stateMutability": "nonpayable",
      "type": "function"
    },
    {
      "inputs": [
        {
          "internalType": "uint256",
          "name": "_electionId",
          "type": "uint256"
        }
      ],
      "name": "advancePhase",
      "outputs": [],
      "stateMutability": "nonpayable",
      "type": "function"
    },
    {
      "inputs": [
        {
          "internalType": "uint256",
          "name": "",
          "type": "uint256"
        },
        {
          "internalType": "uint256",
          "name": "",
          "type": "uint256"
        }
      ],
      "name": "candidates",
      "outputs": [
        {
          "internalType": "uint256",
          "name": "id",
          "type": "uint256"
        },
        {
          "internalType": "string",
          "name": "name",
          "type": "string"
        },
        {
          "internalType": "string",
          "name": "party",
          "type": "string"
        },
        {
          "internalType": "uint256",
          "name": "voteCount",
          "type": "uint256"
        },
        {
          "internalType": "bool",
          "name": "exists",
          "type": "bool"
        }
      ],
      "stateMutability": "view",
      "type": "function"
    },
    {
      "inputs": [
        {
          "internalType": "uint256",
          "name": "_electionId",
          "type": "uint256"
        },
        {
          "internalType": "bytes32",
          "name": "_commitHash",
          "type": "bytes32"
        }
      ],
      "name": "commitVote",
      "outputs": [],
      "stateMutability": "nonpayable",
      "type": "function"
    },
    {
      "inputs": [
        {
          "internalType": "string",
          "name": "_title",
          "type": "string"
        },
        {
          "internalType": "string",
          "name": "_description",
          "type": "string"
        }
      ],
      "name": "createElection",
      "outputs": [
        {
          "internalType": "uint256",
          "name": "",
          "type": "uint256"
        }
      ],
      "stateMutability": "nonpayable",
      "type": "function"
    },
    {
      "inputs": [],
      "name": "electionCount",
      "outputs": [
        {
          "internalType": "uint256",
          "name": "",
          "type": "uint256"
        }
      ],
      "stateMutability": "view",
      "type": "function"
    },
    {
      "inputs": [
        {
          "internalType": "uint256",
          "name": "",
          "type": "uint256"
        }
      ],
      "name": "elections",
      "outputs": [
        {
          "internalType": "uint256",
          "name": "id",
          "type": "uint256"
        },
        {
          "internalType": "string",
          "name": "title",
          "type": "string"
        },
        {
          "internalType": "string",
          "name": "description",
          "type": "string"
        },
        {
          "internalType": "address",
          "name": "admin",
          "type": "address"
        },
        {
          "internalType": "enum VotingSystem.Phase",
          "name": "phase",
          "type": "uint8"
        },
        {
          "internalType": "uint256",
          "name": "candidateCount",
          "type": "uint256"
        },
        {
          "internalType": "uint256",
          "name": "totalCommits",
          "type": "uint256"
        },
        {
          "internalType": "uint256",
          "name": "totalReveals",
          "type": "uint256"
        },
        {
          "internalType": "bool",
          "name": "exists",
          "type": "bool"
        }
      ],
      "stateMutability": "view",
      "type": "function"
    },
    {
      "inputs": [
        {
          "internalType": "uint256",
          "name": "_candidateId",
          "type": "uint256"
        },
        {
          "internalType": "bytes32",
          "name": "_secret",
          "type": "bytes32"
        }
      ],
      "name": "generateCommitHash",
      "outputs": [
        {
          "internalType": "bytes32",
          "name": "",
          "type": "bytes32"
        }
      ],
      "stateMutability": "pure",
      "type": "function"
    },
    {
      "inputs": [
        {
          "internalType": "uint256",
          "name": "_electionId",
          "type": "uint256"
        }
      ],
      "name": "getAllCandidates",
      "outputs": [
        {
          "internalType": "uint256[]",
          "name": "ids",
          "type": "uint256[]"
        },
        {
          "internalType": "string[]",
          "name": "names",
          "type": "string[]"
        },
        {
          "internalType": "string[]",
          "name": "parties",
          "type": "string[]"
        },
        {
          "internalType": "uint256[]",
          "name": "voteCounts",
          "type": "uint256[]"
        }
      ],
      "stateMutability": "view",
      "type": "function"
    },
    {
      "inputs": [
        {
          "internalType": "uint256",
          "name": "_electionId",
          "type": "uint256"
        },
        {
          "internalType": "uint256",
          "name": "_candidateId",
          "type": "uint256"
        }
      ],
      "name": "getCandidate",
      "outputs": [
        {
          "internalType": "uint256",
          "name": "id",
          "type": "uint256"
        },
        {
          "internalType": "string",
          "name": "name",
          "type": "string"
        },
        {
          "internalType": "string",
          "name": "party",
          "type": "string"
        },
        {
          "internalType": "uint256",
          "name": "voteCount",
          "type": "uint256"
        }
      ],
      "stateMutability": "view",
      "type": "function"
    },
    {
      "inputs": [
        {
          "internalType": "uint256",
          "name": "_electionId",
          "type": "uint256"
        }
      ],
      "name": "getElection",
      "outputs": [
        {
          "internalType": "uint256",
          "name": "id",
          "type": "uint256"
        },
        {
          "internalType": "string",
          "name": "title",
          "type": "string"
        },
        {
          "internalType": "string",
          "name": "description",
          "type": "string"
        },
        {
          "internalType": "address",
          "name": "admin",
          "type": "address"
        },
        {
          "internalType": "enum VotingSystem.Phase",
          "name": "phase",
          "type": "uint8"
        },
        {
          "internalType": "uint256",
          "name": "candidateCount",
          "type": "uint256"
        },
        {
          "internalType": "uint256",
          "name": "totalCommits",
          "type": "uint256"
        },
        {
          "internalType": "uint256",
          "name": "totalReveals",
          "type": "uint256"
        }
      ],
      "stateMutability": "view",
      "type": "function"
    },
    {
      "inputs": [
        {
          "internalType": "uint256",
          "name": "_electionId",
          "type": "uint256"
        },
        {
          "internalType": "address",
          "name": "_voter",
          "type": "address"
        }
      ],
      "name": "getVoterStatus",
      "outputs": [
        {
          "internalType": "bool",
          "name": "hasCommitted",
          "type": "bool"
        },
        {
          "internalType": "bool",
          "name": "hasRevealed",
          "type": "bool"
        }
      ],
      "stateMutability": "view",
      "type": "function"
    },
    {
      "inputs": [
        {
          "internalType": "uint256",
          "name": "_electionId",
          "type": "uint256"
        }
      ],
      "name": "getWinner",
      "outputs": [
        {
          "internalType": "uint256",
          "name": "winnerId",
          "type": "uint256"
        },
        {
          "internalType": "string",
          "name": "winnerName",
          "type": "string"
        },
        {
          "internalType": "string",
          "name": "winnerParty",
          "type": "string"
        },
        {
          "internalType": "uint256",
          "name": "winnerVotes",
          "type": "uint256"
        }
      ],
      "stateMutability": "view",
      "type": "function"
    },
    {
      "inputs": [
        {
          "internalType": "uint256",
          "name": "_electionId",
          "type": "uint256"
        },
        {
          "internalType": "uint256",
          "name": "_candidateId",
          "type": "uint256"
        },
        {
          "internalType": "bytes32",
          "name": "_secret",
          "type": "bytes32"
        }
      ],
      "name": "revealVote",
      "outputs": [],
      "stateMutability": "nonpayable",
      "type": "function"
    },
    {
      "inputs": [
        {
          "internalType": "uint256",
          "name": "",
          "type": "uint256"
        },
        {
          "internalType": "address",
          "name": "",
          "type": "address"
        }
      ],
      "name": "voterStatuses",
      "outputs": [
        {
          "internalType": "bool",
          "name": "hasCommitted",
          "type": "bool"
        },
        {
          "internalType": "bool",
          "name": "hasRevealed",
          "type": "bool"
        },
        {
          "internalType": "bytes32",
          "name": "commitHash",
          "type": "bytes32"
        }
      ],
      "stateMutability": "view",
      "type": "function"
    }
  ],
  "bytecode": "0x608060405234801561001057600080fd5b50612345806100206000396000f3fe608060405234801561001057600080fd5b50600436106100f55760003560e01c8063942f56bd11610097578063bd27eca011610066578063bd27eca014610280578063c5adde9814610293578063e6c62efc146102a6578063f9ded646146102b957600080fd5b8063942f56bd14610205578063997d28301461022f5780639d710777146102465780639da691801461026d57600080fd5b80634bd46448116100d35780634bd46448146101935780635e6fef01146101a65780637de14242146101ce57806381aaf4ce146101f257600080fd5b80631d2cd644146100fa57806337ef0d2c1461010f5780634129b2c914610170575b600080fd5b61010d610108366004611b88565b6102dc565b005b61014e61011d366004611bb4565b60036020908152600092835260408084209091529082529020805460019091015460ff808316926101009004169083565b6040805193151584529115156020840152908201526060015b60405180910390f35b61018361017e366004611bf0565b6105ac565b6040516101679493929190611c4f565b6101836101a1366004611c8c565b610852565b6101b96101b4366004611bf0565b610a36565b60405161016799989796959493929190611ce6565b6101e16101dc366004611c8c565b610ba1565b604051610167959493929190611d5d565b61010d610200366004611bf0565b610cef565b610218610213366004611bb4565b610f70565b604080519215158352901515602083015201610167565b61023860005481565b604051908152602001610167565b610259610254366004611bf0565b610fdd565b604051610167989796959493929190611da2565b61010d61027b366004611c8c565b6111a6565b61023861028e366004611e58565b61134b565b6102386102a1366004611c8c565b611572565b61010d6102b4366004611ec4565b6115a1565b6102cc6102c7366004611bf0565b61181a565b6040516101679493929190611fce565b600083815260016020526040902060070154839060ff166103185760405162461bcd60e51b815260040161030f90612026565b60405180910390fd5b836002806000838152600160205260409020600390810154600160a01b900460ff169081111561034a5761034a611cae565b146103675760405162461bcd60e51b815260040161030f9061205d565b60008681526003602090815260408083203384529091529020805460ff166103d15760405162461bcd60e51b815260206004820152601d60248201527f596f752068617665206e6f7420636f6d6d6974746564206120766f7465000000604482015260640161030f565b8054610100900460ff16156104345760405162461bcd60e51b815260206004820152602360248201527f596f75206861766520616c72656164792072657665616c656420796f757220766044820152626f746560e81b606482015260840161030f565b600087815260026020908152604080832089845290915290206004015460ff166104945760405162461bcd60e51b8152602060048201526011602482015270496e76616c69642063616e64696461746560781b604482015260640161030f565b604080516020808201899052818301889052825180830384018152606090920190925280519101206001820154811461050f5760405162461bcd60e51b815260206004820152601d60248201527f48617368206d69736d617463683a20696e76616c69642072657665616c000000604482015260640161030f565b815461ff00191661010017825560008881526002602090815260408083208a84529091528120600301805491610544836120b6565b90915550506000888152600160205260408120600601805491610566836120b6565b9091555050604051878152339089907fd5232b050e3221ade5a3653733191681ef3bde39c4530d87c9bb74004f99dadc9060200160405180910390a35050505050505050565b60008181526001602052604081206007015460609081908390859060ff166105e65760405162461bcd60e51b815260040161030f90612026565b856003806000838152600160205260409020600390810154600160a01b900460ff169081111561061857610618611cae565b146106355760405162461bcd60e51b815260040161030f9061205d565b6000888152600160208190526040822060040154919081905b8381116106ae5760008c815260026020908152604080832084845290915290206003015483101561069c5760008c815260026020908152604080832084845290915290206003015492509050805b806106a6816120b6565b91505061064e565b50806000036106f35760405162461bcd60e51b8152602060048201526011602482015270139bc81d9bdd195cc81c995d99585b1959607a1b604482015260640161030f565b60008b81526002602081815260408084208585529091529091208054600382015460018301805493949293909285019190839061072f906120cf565b80601f016020809104026020016040519081016040528092919081815260200182805461075b906120cf565b80156107a85780601f1061077d576101008083540402835291602001916107a8565b820191906000526020600020905b81548152906001019060200180831161078b57829003601f168201915b505050505092508180546107bb906120cf565b80601f01602080910402602001604051908101604052809291908181526020018280546107e7906120cf565b80156108345780601f1061080957610100808354040283529160200191610834565b820191906000526020600020905b81548152906001019060200180831161081757829003601f168201915b505050505091509a509a509a509a50505050505b5050509193509193565b60008281526001602052604081206007015460609081908390869060ff1661088c5760405162461bcd60e51b815260040161030f90612026565b60008781526002602090815260408083208984529091529020600481015460ff166108f95760405162461bcd60e51b815260206004820152601860248201527f43616e64696461746520646f6573206e6f742065786973740000000000000000604482015260640161030f565b806000015481600101826002018360030154828054610917906120cf565b80601f0160208091040260200160405190810160405280929190818152602001828054610943906120cf565b80156109905780601f1061096557610100808354040283529160200191610990565b820191906000526020600020905b81548152906001019060200180831161097357829003601f168201915b505050505092508180546109a3906120cf565b80601f01602080910402602001604051908101604052809291908181526020018280546109cf906120cf565b8015610a1c5780601f106109f157610100808354040283529160200191610a1c565b820191906000526020600020905b8154815290600101906020018083116109ff57829003601f168201915b505050505091509550955095509550505092959194509250565b600160208190526000918252604090912080549181018054610a57906120cf565b80601f0160208091040260200160405190810160405280929190818152602001828054610a83906120cf565b8015610ad05780601f10610aa557610100808354040283529160200191610ad0565b820191906000526020600020905b815481529060010190602001808311610ab357829003601f168201915b505050505090806002018054610ae5906120cf565b80601f0160208091040260200160405190810160405280929190818152602001828054610b11906120cf565b8015610b5e5780601f10610b3357610100808354040283529160200191610b5e565b820191906000526020600020905b815481529060010190602001808311610b4157829003601f168201915b505050600384015460048501546005860154600687015460079097015495966001600160a01b0384169660ff600160a01b90950485169650929450909290911689565b600260209081526000928352604080842090915290825290208054600182018054919291610bce906120cf565b80601f0160208091040260200160405190810160405280929190818152602001828054610bfa906120cf565b8015610c475780601f10610c1c57610100808354040283529160200191610c47565b820191906000526020600020905b815481529060010190602001808311610c2a57829003601f168201915b505050505090806002018054610c5c906120cf565b80601f0160208091040260200160405190810160405280929190818152602001828054610c88906120cf565b8015610cd55780601f10610caa57610100808354040283529160200191610cd5565b820191906000526020600020905b815481529060010190602001808311610cb857829003601f168201915b50505050600383015460049093015491929160ff16905085565b600081815260016020526040902060070154819060ff16610d225760405162461bcd60e51b815260040161030f90612026565b6000818152600160205260409020600301546001600160a01b03163314610d5b5760405162461bcd60e51b815260040161030f90612109565b600082815260016020526040812090600382810154600160a01b900460ff1690811115610d8a57610d8a611cae565b03610e1257600281600401541015610df05760405162461bcd60e51b815260206004820152602360248201527f4e656564206174206c6561737420322063616e6469646174657320746f207374604482015262185c9d60ea1b606482015260840161030f565b6003810180546001919060ff60a01b1916600160a01b835b0217905550610f23565b6001600382810154600160a01b900460ff1690811115610e3457610e34611cae565b03610ea2576000816005015411610e865760405162461bcd60e51b8152602060048201526016602482015275139bc81d9bdd195cc818dbdb5b5a5d1d1959081e595d60521b604482015260640161030f565b6003810180546002919060ff60a01b1916600160a01b83610e08565b6002600382810154600160a01b900460ff1690811115610ec457610ec4611cae565b03610ee2576003818101805460ff60a01b1916600160a01b83610e08565b60405162461bcd60e51b8152602060048201526016602482015275115b1958dd1a5bdb88185b1c9958591e48195b99195960521b604482015260640161030f565b600381015460405184917f70eca82567b065893a5e6cc590178b6b320855676b6a9a066625933e0c8ebe5891610f6391600160a01b900460ff169061214b565b60405180910390a2505050565b6000828152600160205260408120600701548190849060ff16610fa55760405162461bcd60e51b815260040161030f90612026565b50505060009182526003602090815260408084206001600160a01b0393909316845291905290205460ff808216926101009092041690565b600081815260016020526040812060070154606090819083908190819081908190899060ff1661101f5760405162461bcd60e51b815260040161030f90612026565b60008a815260016020819052604090912080546003820154600483015460058401546006850154958501805495969495909460028801946001600160a01b03811694600160a01b90910460ff16939092909190879061107d906120cf565b80601f01602080910402602001604051908101604052809291908181526020018280546110a9906120cf565b80156110f65780601f106110cb576101008083540402835291602001916110f6565b820191906000526020600020905b8154815290600101906020018083116110d957829003601f168201915b50505050509650858054611109906120cf565b80601f0160208091040260200160405190810160405280929190818152602001828054611135906120cf565b80156111825780601f1061115757610100808354040283529160200191611182565b820191906000526020600020905b81548152906001019060200180831161116557829003601f168201915b50505050509550995099509950995099509950995099505050919395975091939597565b600082815260016020526040902060070154829060ff166111d95760405162461bcd60e51b815260040161030f90612026565b826001806000838152600160205260409020600390810154600160a01b900460ff169081111561120b5761120b611cae565b146112285760405162461bcd60e51b815260040161030f9061205d565b60008581526003602090815260408083203384529091529020805460ff161561129d5760405162461bcd60e51b815260206004820152602160248201527f596f75206861766520616c726561647920636f6d6d6974746564206120766f746044820152606560f81b606482015260840161030f565b846112e05760405162461bcd60e51b8152602060048201526013602482015272092dcecc2d8d2c840c6dedadad2e840d0c2e6d606b1b604482015260640161030f565b805460ff191660019081178255818101869055600087815260209190915260408120600501805491611311836120b6565b9091555050604051339087907f3834a2c8ea101e1468b529270d35fbff0a12de32a5a7e5729b8b4dad6fb32c0190600090a3505050505050565b6000836113925760405162461bcd60e51b81526020600482015260156024820152745469746c652063616e6e6f7420626520656d70747960581b604482015260640161030f565b6000805490806113a1836120b6565b9190505550604051806101200160405280600054815260200186868080601f016020809104026020016040519081016040528093929190818152602001838380828437600092019190915250505090825250604080516020601f870181900481028201810190925285815291810191908690869081908401838280828437600092018290525093855250503360208401525060409091019081526000602080830182905260408084018390526060840183905260016080909401849052825483528382529091208351815590830151909182019061147f90826121be565b506040820151600282019061149490826121be565b506060820151600380830180546001600160a01b039093166001600160a01b031984168117825560808601519391926001600160a81b03199092161790600160a01b9084908111156114e8576114e8611cae565b021790555060a0820151600482015560c0820151600582015560e08201516006820155610100909101516007909101805460ff19169115159190911790556000546040513391907f86a3370600c4089c572e5fa1f974825253da2be6295eb9e0eef3423aebd991b09061155e90899089906122a7565b60405180910390a350600054949350505050565b604080516020808201859052818301849052825180830384018152606090920190925280519101205b92915050565b600085815260016020526040902060070154859060ff166115d45760405162461bcd60e51b815260040161030f90612026565b6000818152600160205260409020600301546001600160a01b0316331461160d5760405162461bcd60e51b815260040161030f90612109565b856000806000838152600160205260409020600390810154600160a01b900460ff169081111561163f5761163f611cae565b1461165c5760405162461bcd60e51b815260040161030f9061205d565b856116a95760405162461bcd60e51b815260206004820152601e60248201527f43616e646964617465206e616d652063616e6e6f7420626520656d7074790000604482015260640161030f565b600088815260016020526040812060048101805491926116c8836120b6565b91905055506040518060a001604052808260040154815260200189898080601f016020809104026020016040519081016040528093929190818152602001838380828437600092019190915250505090825250604080516020601f8a018190048102820181019092528881529181019190899089908190840183828082843760009201829052509385525050506020808301829052600160409384018190528d835260028252838320600487015484528252929091208351815590830151909182019061179590826121be565b50604082015160028201906117aa90826121be565b50606082015160038201556080909101516004918201805460ff19169115159190911790558101546040518a917fed8911b3df733b7d5f75724158e54478ea12e30f49c9d31b5261879f5b76586f9161180791908c908c906122c3565b60405180910390a2505050505050505050565b600081815260016020526040902060070154606090819081908190859060ff166118565760405162461bcd60e51b815260040161030f90612026565b6000868152600160205260409020600401548067ffffffffffffffff81111561188157611881612159565b6040519080825280602002602001820160405280156118aa578160200160208202803683370190505b5095508067ffffffffffffffff8111156118c6576118c6612159565b6040519080825280602002602001820160405280156118f957816020015b60608152602001906001900390816118e45790505b5094508067ffffffffffffffff81111561191557611915612159565b60405190808252806020026020018201604052801561194857816020015b60608152602001906001900390816119335790505b5093508067ffffffffffffffff81111561196457611964612159565b60405190808252806020026020018201604052801561198d578160200160208202803683370190505b50925060015b81811161084857600088815260026020908152604080832084845290915290208054886119c16001856122e6565b815181106119d1576119d16122f9565b6020026020010181815250508060010180546119ec906120cf565b80601f0160208091040260200160405190810160405280929190818152602001828054611a18906120cf565b8015611a655780601f10611a3a57610100808354040283529160200191611a65565b820191906000526020600020905b815481529060010190602001808311611a4857829003601f168201915b505050505087600184611a7891906122e6565b81518110611a8857611a886122f9565b6020026020010181905250806002018054611aa2906120cf565b80601f0160208091040260200160405190810160405280929190818152602001828054611ace906120cf565b8015611b1b5780601f10611af057610100808354040283529160200191611b1b565b820191906000526020600020905b815481529060010190602001808311611afe57829003601f168201915b505050505086600184611b2e91906122e6565b81518110611b3e57611b3e6122f9565b6020908102919091010152600381015485611b5a6001856122e6565b81518110611b6a57611b6a6122f9565b60209081029190910101525080611b80816120b6565b915050611993565b600080600060608486031215611b9d57600080fd5b505081359360208301359350604090920135919050565b60008060408385031215611bc757600080fd5b8235915060208301356001600160a01b0381168114611be557600080fd5b809150509250929050565b600060208284031215611c0257600080fd5b5035919050565b6000815180845260005b81811015611c2f57602081850181015186830182015201611c13565b506000602082860101526020601f19601f83011685010191505092915050565b848152608060208201526000611c686080830186611c09565b8281036040840152611c7a8186611c09565b91505082606083015295945050505050565b60008060408385031215611c9f57600080fd5b50508035926020909101359150565b634e487b7160e01b600052602160045260246000fd5b60048110611ce257634e487b7160e01b600052602160045260246000fd5b9052565b60006101208b8352806020840152611d008184018c611c09565b90508281036040840152611d14818b611c09565b6001600160a01b038a1660608501529150611d3490506080830188611cc4565b8560a08301528460c08301528360e08301528215156101008301529a9950505050505050505050565b85815260a060208201526000611d7660a0830187611c09565b8281036040840152611d888187611c09565b606084019590955250509015156080909101529392505050565b60006101008a8352806020840152611dbc8184018b611c09565b90508281036040840152611dd0818a611c09565b6001600160a01b03891660608501529150611df090506080830187611cc4565b8460a08301528360c08301528260e08301529998505050505050505050565b60008083601f840112611e2157600080fd5b50813567ffffffffffffffff811115611e3957600080fd5b602083019150836020828501011115611e5157600080fd5b9250929050565b60008060008060408587031215611e6e57600080fd5b843567ffffffffffffffff80821115611e8657600080fd5b611e9288838901611e0f565b90965094506020870135915080821115611eab57600080fd5b50611eb887828801611e0f565b95989497509550505050565b600080600080600060608688031215611edc57600080fd5b85359450602086013567ffffffffffffffff80821115611efb57600080fd5b611f0789838a01611e0f565b90965094506040880135915080821115611f2057600080fd5b50611f2d88828901611e0f565b969995985093965092949392505050565b600081518084526020808501945080840160005b83811015611f6e57815187529582019590820190600101611f52565b509495945050505050565b600081518084526020808501808196508360051b8101915082860160005b85811015611fc1578284038952611faf848351611c09565b98850198935090840190600101611f97565b5091979650505050505050565b608081526000611fe16080830187611f3e565b8281036020840152611ff38187611f79565b905082810360408401526120078186611f79565b9050828103606084015261201b8185611f3e565b979650505050505050565b60208082526017908201527f456c656374696f6e20646f6573206e6f74206578697374000000000000000000604082015260600190565b60208082526023908201527f416374696f6e206e6f7420616c6c6f77656420696e2063757272656e7420706860408201526261736560e81b606082015260800190565b634e487b7160e01b600052601160045260246000fd5b6000600182016120c8576120c86120a0565b5060010190565b600181811c908216806120e357607f821691505b60208210810361210357634e487b7160e01b600052602260045260246000fd5b50919050565b60208082526022908201527f4f6e6c792061646d696e2063616e20706572666f726d2074686973206163746960408201526137b760f11b606082015260800190565b6020810161159b8284611cc4565b634e487b7160e01b600052604160045260246000fd5b601f8211156121b957600081815260208120601f850160051c810160208610156121965750805b601f850160051c820191505b818110156121b5578281556001016121a2565b5050505b505050565b815167ffffffffffffffff8111156121d8576121d8612159565b6121ec816121e684546120cf565b8461216f565b602080601f83116001811461222157600084156122095750858301515b600019600386901b1c1916600185901b1785556121b5565b600085815260208120601f198616915b8281101561225057888601518255948401946001909101908401612231565b508582101561226e5787850151600019600388901b60f8161c191681555b5050505050600190811b01905550565b81835281816020850137506000828201602090810191909152601f909101601f19169091010190565b6020815260006122bb60208301848661227e565b949350505050565b8381526040602082015260006122dd60408301848661227e565b95945050505050565b8181038181111561159b5761159b6120a0565b634e487b7160e01b600052603260045260246000fdfea2646970667358221220298aadefac57edf6ab9696ac6944b6a48457642c7a4da68ab7a1459f6806606064736f6c63430008140033",
  "linkReferences": {},
  "deployedLinkReferences": {}
}