{"contracts/VotingSystem.sol":{"VotingSystem":{"abi":[{"anonymous":false,"inputs":[{"indexed":true,"internalType":"uint256","name":"electionId","type":"uint256"},{"indexed":false,"internalType":"uint256","name":"candidateId","type":"uint256"},{"indexed":false,"internalType":"string","name":"name","type":"string"}],"name":"CandidateAdded","type":"event"},{"anonymous":false,"inputs":[{"indexed":true,"internalType":"uint256","name":"electionId","type":"uint256"},{"indexed":false,"internalType":"string","name":"title","type":"string"},{"indexed":true,"internalType":"address","name":"admin","type":"address"}],"name":"ElectionCreated","type":"event"},{"anonymous":false,"inputs":[{"indexed":true,"internalType":"uint256","name":"electionId","type":"uint256"},{"indexed":false,"internalType":"enum VotingSystem.Phase","name":"newPhase","type":"uint8"}],"name":"PhaseChanged","type":"event"},{"anonymous":false,"inputs":[{"indexed":true,"internalType":"uint256","name":"electionId","type":"uint256"},{"indexed":true,"internalType":"address","name":"voter","type":"address"}],"name":"VoteCommitted","type":"event"},{"anonymous":false,"inputs":[{"indexed":true,"internalType":"uint256","name":"electionId","type":"uint256"},{"indexed":true,"internalType":"address","name":"voter","type":"address"},{"indexed":false,"internalType":"uint256","name":"candidateId","type":"uint256"}],"name":"VoteRevealed","type":"event"},{"inputs":[{"internalType":"uint256","name":"_electionId","type":"uint256"},{"internalType":"string","name":"_name","type":"string"},{"internalType":"string","name":"_party","type":"string"}],"name":"addCandidate","outputs":[],"stateMutability":"nonpayable","type":"function"},{"inputs":[{"internalType":"uint256","name":"_electionId","type":"uint256"}],"name":"advancePhase","outputs":[],"stateMutability":"nonpayable","type":"function"},{"inputs":[{"internalType":"uint256","name":"","type":"uint256"},{"internalType":"uint256","name":"","type":"uint256"}],"name":"candidates","outputs":[{"internalType":"uint256","name":"id","type":"uint256"},{"internalType":"string","name":"name","type":"string"},{"internalType":"string","name":"party","type":"string"},{"internalType":"uint256","name":"voteCount","type":"uint256"},{"internalType":"bool","name":"exists","type":"bool"}],"stateMutability":"view","type":"function"},{"inputs":[{"internalType":"uint256","name":"_electionId","type":"uint256"},{"internalType":"bytes32","name":"_commitHash","type":"bytes32"}],"name":"commitVote","outputs":[],"stateMutability":"nonpayable","type":"function"},{"inputs":[{"internalType":"string","name":"_title","type":"string"},{"internalType":"string","name":"_description","type":"string"}],"name":"createElection","outputs":[{"internalType":"uint256","name":"","type":"uint256"}],"stateMutability":"nonpayable","type":"function"},{"inputs":[],"name":"electionCount","outputs":[{"internalType":"uint256","name":"","type":"uint256"}],"stateMutability":"view","type":"function"},{"inputs":[{"internalType":"uint256","name":"","type":"uint256"}],"name":"elections","outputs":[{"internalType":"uint256","name":"id","type":"uint256"},{"internalType":"string","name":"title","type":"string"},{"internalType":"string","name":"description","type":"string"},{"internalType":"address","name":"admin","type":"address"},{"internalType":"enum VotingSystem.Phase","name":"phase","type":"uint8"},{"internalType":"uint256","name":"candidateCount","type":"uint256"},{"internalType":"uint256","name":"totalCommits","type":"uint256"},{"internalType":"uint256","name":"totalReveals","type":"uint256"},{"internalType":"bool","name":"exists","type":"bool"}],"stateMutability":"view","type":"function"},{"inputs":[{"internalType":"uint256","name":"_candidateId","type":"uint256"},{"internalType":"bytes32","name":"_secret","type":"bytes32"}],"name":"generateCommitHash","outputs":[{"internalType":"bytes32","name":"","type":"bytes32"}],"stateMutability":"pure","type":"function"},{"inputs":[{"internalType":"uint256","name":"_electionId","type":"uint256"}],"name":"getAllCandidates","outputs":[{"internalType":"uint256[]","name":"ids","type":"uint256[]"},{"internalType":"string[]","name":"names","type":"string[]"},{"internalType":"string[]","name":"parties","type":"string[]"},{"internalType":"uint256[]","name":"voteCounts","type":"uint256[]"}],"stateMutability":"view","type":"function"},{"inputs":[{"internalType":"uint256","name":"_electionId","type":"uint256"},{"internalType":"uint256","name":"_candidateId","type":"uint256"}],"name":"getCandidate","outputs":[{"internalType":"uint256","name":"id","type":"uint256"},{"internalType":"string","name":"name","type":"string"},{"internalType":"string","name":"party","type":"string"},{"internalType":"uint256","name":"voteCount","type":"uint256"}],"stateMutability":"view","type":"function"},{"inputs":[{"internalType":"uint256","name":"_electionId","type":"uint256"}],"name":"getElection","outputs":[{"internalType":"uint256","name":"id","type":"uint256"},{"internalType":"string","name":"title","type":"string"},{"internalType":"string","name":"description","type":"string"},{"internalType":"address","name":"admin","type":"address"},{"internalType":"enum VotingSystem.Phase","name":"phase","type":"uint8"},{"internalType":"uint256","name":"candidateCount","type":"uint256"},{"internalType":"uint256","name":"totalCommits","type":"uint256"},{"internalType":"uint256","name":"totalReveals","type":"uint256"}],"stateMutability":"view","type":"function"},{"inputs":[{"internalType":"uint256","name":"_electionId","type":"uint256"},{"internalType":"address","name":"_voter","type":"address"}],"name":"getVoterStatus","outputs":[{"internalType":"bool","name":"hasCommitted","type":"bool"},{"internalType":"bool","name":"hasRevealed","type":"bool"}],"stateMutability":"view","type":"function"},{"inputs":[{"internalType":"uint256","name":"_electionId","type":"uint256"}],"name":"getWinner","outputs":[{"internalType":"uint256","name":"winnerId","type":"uint256"},{"internalType":"string","name":"winnerName","type":"string"},{"internalType":"string","name":"winnerParty","type":"string"},{"internalType":"uint256","name":"winnerVotes","type":"uint256"}],"stateMutability":"view","type":"function"},{"inputs":[{"internalType":"uint256","name":"_electionId","type":"uint256"},{"internalType":"uint256","name":"_candidateId","type":"uint256"},{"internalType":"bytes32","name":"_secret","type":"bytes32"}],"name":"revealVote","outputs":[],"stateMutability":"nonpayable","type":"function"},{"inputs":[{"internalType":"uint256","name":"","type":"uint256"},{"internalType":"address","name":"","type":"address"}],"name":"voterStatuses","outputs":[{"internalType":"bool","name":"hasCommitted","type":"bool"},{"internalType":"bool","name":"hasRevealed","type":"bool"},{"internalType":"bytes32","name":"commitHash","type":"bytes32"}],"stateMutability":"view","type":"function"}],"evm":{"bytecode":{"linkReferences":{},"object":"608060405234801561001057600080fd5b50612345806100206000396000f3fe608060405234801561001057600080fd5b50600436106100f55760003560e01c8063942f56bd11610097578063bd27eca011610066578063bd27eca014610280578063c5adde9814610293578063e6c62efc146102a6578063f9ded646146102b957600080fd5b8063942f56bd14610205578063997d28301461022f5780639d710777146102465780639da691801461026d57600080fd5b80634bd46448116100d35780634bd46448146101935780635e6fef01146101a65780637de14242146101ce57806381aaf4ce146101f257600080fd5b80631d2cd644146100fa57806337ef0d2c1461010f5780634129b2c914610170575b600080fd5b61010d610108366004611b88565b6102dc565b005b61014e61011d366004611bb4565b60036020908152600092835260408084209091529082529020805460019091015460ff808316926101009004169083565b6040805193151584529115156020840152908201526060015b60405180910390f35b61018361017e366004611bf0565b6105ac565b6040516101679493929190611c4f565b6101836101a1366004611c8c565b610852565b6101b96101b4366004611bf0565b610a36565b60405161016799989796959493929190611ce6565b6101e16101dc366004611c8c565b610ba1565b604051610167959493929190611d5d565b61010d610200366004611bf0565b610cef565b610218610213366004611bb4565b610f70565b604080519215158352901515602083015201610167565b61023860005481565b604051908152602001610167565b610259610254366004611bf0565b610fdd565b604051610167989796959493929190611da2565b61010d61027b366004611c8c565b6111a6565b61023861028e366004611e58565b61134b565b6102386102a1366004611c8c565b611572565b61010d6102b4366004611ec4565b6115a1565b6102cc6102c7366004611bf0565b61181a565b6040516101679493929190611fce565b600083815260016020526040902060070154839060ff166103185760405162461bcd60e51b815260040161030f90612026565b60405180910390fd5b836002806000838152600160205260409020600390810154600160a01b900460ff169081111561034a5761034a611cae565b146103675760405162461bcd60e51b815260040161030f9061205d565b60008681526003602090815260408083203384529091529020805460ff166103d15760405162461bcd60e51b815260206004820152601d60248201527f596f752068617665206e6f7420636f6d6d6974746564206120766f7465000000604482015260640161030f565b8054610100900460ff16156104345760405162461bcd60e51b815260206004820152602360248201527f596f75206861766520616c72656164792072657665616c656420796f757220766044820152626f746560e81b606482015260840161030f565b600087815260026020908152604080832089845290915290206004015460ff166104945760405162461bcd60e51b8152602060048201526011602482015270496e76616c69642063616e64696461746560781b604482015260640161030f565b604080516020808201899052818301889052825180830384018152606090920190925280519101206001820154811461050f5760405162461bcd60e51b815260206004820152601d60248201527f48617368206d69736d617463683a20696e76616c69642072657665616c000000604482015260640161030f565b815461ff00191661010017825560008881526002602090815260408083208a84529091528120600301805491610544836120b6565b90915550506000888152600160205260408120600601805491610566836120b6565b9091555050604051878152339089907fd5232b050e3221ade5a3653733191681ef3bde39c4530d87c9bb74004f99dadc9060200160405180910390a35050505050505050565b60008181526001602052604081206007015460609081908390859060ff166105e65760405162461bcd60e51b815260040161030f90612026565b856003806000838152600160205260409020600390810154600160a01b900460ff169081111561061857610618611cae565b146106355760405162461bcd60e51b815260040161030f9061205d565b6000888152600160208190526040822060040154919081905b8381116106ae5760008c815260026020908152604080832084845290915290206003015483101561069c5760008c815260026020908152604080832084845290915290206003015492509050805b806106a6816120b6565b91505061064e565b50806000036106f35760405162461bcd60e51b8152602060048201526011602482015270139bc81d9bdd195cc81c995d99585b1959607a1b604482015260640161030f565b60008b81526002602081815260408084208585529091529091208054600382015460018301805493949293909285019190839061072f906120cf565b80601f016020809104026020016040519081016040528092919081815260200182805461075b906120cf565b80156107a85780601f1061077d576101008083540402835291602001916107a8565b820191906000526020600020905b81548152906001019060200180831161078b57829003601f168201915b505050505092508180546107bb906120cf565b80601f01602080910402602001604051908101604052809291908181526020018280546107e7906120cf565b80156108345780601f1061080957610100808354040283529160200191610834565b820191906000526020600020905b81548152906001019060200180831161081757829003601f168201915b505050505091509a509a509a509a50505050505b5050509193509193565b60008281526001602052604081206007015460609081908390869060ff1661088c5760405162461bcd60e51b815260040161030f90612026565b60008781526002602090815260408083208984529091529020600481015460ff166108f95760405162461bcd60e51b815260206004820152601860248201527f43616e64696461746520646f6573206e6f742065786973740000000000000000604482015260640161030f565b806000015481600101826002018360030154828054610917906120cf565b80601f0160208091040260200160405190810160405280929190818152602001828054610943906120cf565b80156109905780601f1061096557610100808354040283529160200191610990565b820191906000526020600020905b81548152906001019060200180831161097357829003601f168201915b505050505092508180546109a3906120cf565b80601f01602080910402602001604051908101604052809291908181526020018280546109cf906120cf565b8015610a1c5780601f106109f157610100808354040283529160200191610a1c565b820191906000526020600020905b8154815290600101906020018083116109ff57829003601f168201915b505050505091509550955095509550505092959194509250565b600160208190526000918252604090912080549181018054610a57906120cf565b80601f0160208091040260200160405190810160405280929190818152602001828054610a83906120cf565b8015610ad05780601f10610aa557610100808354040283529160200191610ad0565b820191906000526020600020905b815481529060010190602001808311610ab357829003601f168201915b505050505090806002018054610ae5906120cf565b80601f0160208091040260200160405190810160405280929190818152602001828054610b11906120cf565b8015610b5e5780601f10610b3357610100808354040283529160200191610b5e565b820191906000526020600020905b815481529060010190602001808311610b4157829003601f168201915b505050600384015460048501546005860154600687015460079097015495966001600160a01b0384169660ff600160a01b90950485169650929450909290911689565b600260209081526000928352604080842090915290825290208054600182018054919291610bce906120cf565b80601f0160208091040260200160405190810160405280929190818152602001828054610bfa906120cf565b8015610c475780601f10610c1c57610100808354040283529160200191610c47565b820191906000526020600020905b815481529060010190602001808311610c2a57829003601f168201915b505050505090806002018054610c5c906120cf565b80601f0160208091040260200160405190810160405280929190818152602001828054610c88906120cf565b8015610cd55780601f10610caa57610100808354040283529160200191610cd5565b820191906000526020600020905b815481529060010190602001808311610cb857829003601f168201915b50505050600383015460049093015491929160ff16905085565b600081815260016020526040902060070154819060ff16610d225760405162461bcd60e51b815260040161030f90612026565b6000818152600160205260409020600301546001600160a01b03163314610d5b5760405162461bcd60e51b815260040161030f90612109565b600082815260016020526040812090600382810154600160a01b900460ff1690811115610d8a57610d8a611cae565b03610e1257600281600401541015610df05760405162461bcd60e51b815260206004820152602360248201527f4e656564206174206c6561737420322063616e6469646174657320746f207374604482015262185c9d60ea1b606482015260840161030f565b6003810180546001919060ff60a01b1916600160a01b835b0217905550610f23565b6001600382810154600160a01b900460ff1690811115610e3457610e34611cae565b03610ea2576000816005015411610e865760405162461bcd60e51b8152602060048201526016602482015275139bc81d9bdd195cc818dbdb5b5a5d1d1959081e595d60521b604482015260640161030f565b6003810180546002919060ff60a01b1916600160a01b83610e08565b6002600382810154600160a01b900460ff1690811115610ec457610ec4611cae565b03610ee2576003818101805460ff60a01b1916600160a01b83610e08565b60405162461bcd60e51b8152602060048201526016602482015275115b1958dd1a5bdb88185b1c9958591e48195b99195960521b604482015260640161030f565b600381015460405184917f70eca82567b065893a5e6cc590178b6b320855676b6a9a066625933e0c8ebe5891610f6391600160a01b900460ff169061214b565b60405180910390a2505050565b6000828152600160205260408120600701548190849060ff16610fa55760405162461bcd60e51b815260040161030f90612026565b50505060009182526003602090815260408084206001600160a01b0393909316845291905290205460ff808216926101009092041690565b600081815260016020526040812060070154606090819083908190819081908190899060ff1661101f5760405162461bcd60e51b815260040161030f90612026565b60008a815260016020819052604090912080546003820154600483015460058401546006850154958501805495969495909460028801946001600160a01b03811694600160a01b90910460ff16939092909190879061107d906120cf565b80601f01602080910402602001604051908101604052809291908181526020018280546110a9906120cf565b80156110f65780601f106110cb576101008083540402835291602001916110f6565b820191906000526020600020905b8154815290600101906020018083116110d957829003601f168201915b50505050509650858054611109906120cf565b80601f0160208091040260200160405190810160405280929190818152602001828054611135906120cf565b80156111825780601f1061115757610100808354040283529160200191611182565b820191906000526020600020905b81548152906001019060200180831161116557829003601f168201915b50505050509550995099509950995099509950995099505050919395975091939597565b600082815260016020526040902060070154829060ff166111d95760405162461bcd60e51b815260040161030f90612026565b826001806000838152600160205260409020600390810154600160a01b900460ff169081111561120b5761120b611cae565b146112285760405162461bcd60e51b815260040161030f9061205d565b60008581526003602090815260408083203384529091529020805460ff161561129d5760405162461bcd60e51b815260206004820152602160248201527f596f75206861766520616c726561647920636f6d6d6974746564206120766f746044820152606560f81b606482015260840161030f565b846112e05760405162461bcd60e51b8152602060048201526013602482015272092dcecc2d8d2c840c6dedadad2e840d0c2e6d606b1b604482015260640161030f565b805460ff191660019081178255818101869055600087815260209190915260408120600501805491611311836120b6565b9091555050604051339087907f3834a2c8ea101e1468b529270d35fbff0a12de32a5a7e5729b8b4dad6fb32c0190600090a3505050505050565b6000836113925760405162461bcd60e51b81526020600482015260156024820152745469746c652063616e6e6f7420626520656d70747960581b604482015260640161030f565b6000805490806113a1836120b6565b9190505550604051806101200160405280600054815260200186868080601f016020809104026020016040519081016040528093929190818152602001838380828437600092019190915250505090825250604080516020601f870181900481028201810190925285815291810191908690869081908401838280828437600092018290525093855250503360208401525060409091019081526000602080830182905260408084018390526060840183905260016080909401849052825483528382529091208351815590830151909182019061147f90826121be565b506040820151600282019061149490826121be565b506060820151600380830180546001600160a01b039093166001600160a01b031984168117825560808601519391926001600160a81b03199092161790600160a01b9084908111156114e8576114e8611cae565b021790555060a0820151600482015560c0820151600582015560e08201516006820155610100909101516007909101805460ff19169115159190911790556000546040513391907f86a3370600c4089c572e5fa1f974825253da2be6295eb9e0eef3423aebd991b09061155e90899089906122a7565b60405180910390a350600054949350505050565b604080516020808201859052818301849052825180830384018152606090920190925280519101205b92915050565b600085815260016020526040902060070154859060ff166115d45760405162461bcd60e51b815260040161030f90612026565b6000818152600160205260409020600301546001600160a01b0316331461160d5760405162461bcd60e51b815260040161030f90612109565b856000806000838152600160205260409020600390810154600160a01b900460ff169081111561163f5761163f611cae565b1461165c5760405162461bcd60e51b815260040161030f9061205d565b856116a95760405162461bcd60e51b815260206004820152601e60248201527f43616e646964617465206e616d652063616e6e6f7420626520656d7074790000604482015260640161030f565b600088815260016020526040812060048101805491926116c8836120b6565b91905055506040518060a001604052808260040154815260200189898080601f016020809104026020016040519081016040528093929190818152602001838380828437600092019190915250505090825250604080516020601f8a018190048102820181019092528881529181019190899089908190840183828082843760009201829052509385525050506020808301829052600160409384018190528d835260028252838320600487015484528252929091208351815590830151909182019061179590826121be565b50604082015160028201906117aa90826121be565b50606082015160038201556080909101516004918201805460ff19169115159190911790558101546040518a917fed8911b3df733b7d5f75724158e54478ea12e30f49c9d31b5261879f5b76586f9161180791908c908c906122c3565b60405180910390a2505050505050505050565b600081815260016020526040902060070154606090819081908190859060ff166118565760405162461bcd60e51b815260040161030f90612026565b6000868152600160205260409020600401548067ffffffffffffffff81111561188157611881612159565b6040519080825280602002602001820160405280156118aa578160200160208202803683370190505b5095508067ffffffffffffffff8111156118c6576118c6612159565b6040519080825280602002602001820160405280156118f957816020015b60608152602001906001900390816118e45790505b5094508067ffffffffffffffff81111561191557611915612159565b60405190808252806020026020018201604052801561194857816020015b60608152602001906001900390816119335790505b5093508067ffffffffffffffff81111561196457611964612159565b60405190808252806020026020018201604052801561198d578160200160208202803683370190505b50925060015b81811161084857600088815260026020908152604080832084845290915290208054886119c16001856122e6565b815181106119d1576119d16122f9565b6020026020010181815250508060010180546119ec906120cf565b80601f0160208091040260200160405190810160405280929190818152602001828054611a18906120cf565b8015611a655780601f10611a3a57610100808354040283529160200191611a65565b820191906000526020600020905b815481529060010190602001808311611a4857829003601f168201915b505050505087600184611a7891906122e6565b81518110611a8857611a886122f9565b6020026020010181905250806002018054611aa2906120cf565b80601f0160208091040260200160405190810160405280929190818152602001828054611ace906120cf565b8015611b1b5780601f10611af057610100808354040283529160200191611b1b565b820191906000526020600020905b815481529060010190602001808311611afe57829003601f168201915b505050505086600184611b2e91906122e6565b81518110611b3e57611b3e6122f9565b6020908102919091010152600381015485611b5a6001856122e6565b81518110611b6a57611b6a6122f9565b60209081029190910101525080611b80816120b6565b915050611993565b600080600060608486031215611b9d57600080fd5b505081359360208301359350604090920135919050565b60008060408385031215611bc757600080fd5b8235915060208301356001600160a01b0381168114611be557600080fd5b809150509250929050565b600060208284031215611c0257600080fd5b5035919050565b6000815180845260005b81811015611c2f57602081850181015186830182015201611c13565b506000602082860101526020601f19601f83011685010191505092915050565b848152608060208201526000611c686080830186611c09565b8281036040840152611c7a8186611c09565b91505082606083015295945050505050565b60008060408385031215611c9f57600080fd5b50508035926020909101359150565b634e487b7160e01b600052602160045260246000fd5b60048110611ce257634e487b7160e01b600052602160045260246000fd5b9052565b60006101208b8352806020840152611d008184018c611c09565b90508281036040840152611d14818b611c09565b6001600160a01b038a1660608501529150611d3490506080830188611cc4565b8560a08301528460c08301528360e08301528215156101008301529a9950505050505050505050565b85815260a060208201526000611d7660a0830187611c09565b8281036040840152611d888187611c09565b606084019590955250509015156080909101529392505050565b60006101008a8352806020840152611dbc8184018b611c09565b90508281036040840152611dd0818a611c09565b6001600160a01b03891660608501529150611df090506080830187611cc4565b8460a08301528360c08301528260e08301529998505050505050505050565b60008083601f840112611e2157600080fd5b50813567ffffffffffffffff811115611e3957600080fd5b602083019150836020828501011115611e5157600080fd5b9250929050565b60008060008060408587031215611e6e57600080fd5b843567ffffffffffffffff80821115611e8657600080fd5b611e9288838901611e0f565b90965094506020870135915080821115611eab57600080fd5b50611eb887828801611e0f565b95989497509550505050565b600080600080600060608688031215611edc57600080fd5b85359450602086013567ffffffffffffffff80821115611efb57600080fd5b611f0789838a01611e0f565b90965094506040880135915080821115611f2057600080fd5b50611f2d88828901611e0f565b969995985093965092949392505050565b600081518084526020808501945080840160005b83811015611f6e57815187529582019590820190600101611f52565b509495945050505050565b600081518084526020808501808196508360051b8101915082860160005b85811015611fc1578284038952611faf848351611c09565b98850198935090840190600101611f97565b5091979650505050505050565b608081526000611fe16080830187611f3e565b8281036020840152611ff38187611f79565b905082810360408401526120078186611f79565b9050828103606084015261201b8185611f3e565b979650505050505050565b60208082526017908201527f456c656374696f6e20646f6573206e6f74206578697374000000000000000000604082015260600190565b60208082526023908201527f416374696f6e206e6f7420616c6c6f77656420696e2063757272656e7420706860408201526261736560e81b606082015260800190565b634e487b7160e01b600052601160045260246000fd5b6000600182016120c8576120c86120a0565b5060010190565b600181811c908216806120e357607f821691505b60208210810361210357634e487b7160e01b600052602260045260246000fd5b50919050565b60208082526022908201527f4f6e6c792061646d696e2063616e20706572666f726d2074686973206163746960408201526137b760f11b606082015260800190565b6020810161159b8284611cc4565b634e487b7160e01b600052604160045260246000fd5b601f8211156121b957600081815260208120601f850160051c810160208610156121965750805b601f850160051c820191505b818110156121b5578281556001016121a2565b5050505b505050565b815167ffffffffffffffff8111156121d8576121d8612159565b6121ec816121e684546120cf565b8461216f565b602080601f83116001811461222157600084156122095750858301515b600019600386901b1c1916600185901b1785556121b5565b600085815260208120601f198616915b8281101561225057888601518255948401946001909101908401612231565b508582101561226e5787850151600019600388901b60f8161c191681555b5050505050600190811b01905550565b81835281816020850137506000828201602090810191909152601f909101601f19169091010190565b6020815260006122bb60208301848661227e565b949350505050565b8381526040602082015260006122dd60408301848661227e565b95945050505050565b8181038181111561159b5761159b6120a0565b634e487b7160e01b600052603260045260246000fdfea2646970667358221220298aadefac57edf6ab9696ac6944b6a48457642c7a4da68ab7a1459f6806606064736f6c63430008140033","opcodes":"PUSH1 0x80 PUSH1 0x40 MSTORE CALLVALUE DUP1 ISZERO PUSH2 0x10 JUMPI PUSH1 0x0 DUP1 REVERT JUMPDEST POP PUSH2 0x2345 DUP1 PUSH2 0x20 PUSH1 0x0 CODECOPY PUSH1 0x0 RETURN INVALID PUSH1 0x80 PUSH1 0x40 MSTORE CALLVALUE DUP1 ISZERO PUSH2 0x10 JUMPI PUSH1 0x0 DUP1 REVERT JUMPDEST POP PUSH1 0x4 CALLDATASIZE LT PUSH2 0xF5 JUMPI PUSH1 0x0 CALLDATALOAD PUSH1 0xE0 SHR DUP1 PUSH4 0x942F56BD GT PUSH2 0x97 JUMPI DUP1 PUSH4 0xBD27ECA0 GT PUSH2 0x66 JUMPI DUP1 PUSH4 0xBD27ECA0 EQ PUSH2 0x280 JUMPI DUP1 PUSH4 0xC5ADDE98 EQ PUSH2 0x293 JUMPI DUP1 PUSH4 0xE6C62EFC EQ PUSH2 0x2A6 JUMPI DUP1 PUSH4 0xF9DED646 EQ PUSH2 0x2B9 JUMPI PUSH1 0x0 DUP1 REVERT JUMPDEST DUP1 PUSH4 0x942F56BD EQ PUSH2 0x205 JUMPI DUP1 PUSH4 0x997D2830 EQ PUSH2 0x22F JUMPI DUP1 PUSH4 0x9D710777 EQ PUSH2 0x246 JUMPI DUP1 PUSH4 0x9DA69180 EQ PUSH2 0x26D JUMPI PUSH1 0x0 DUP1 REVERT JUMPDEST DUP1 PUSH4 0x4BD46448 GT PUSH2 0xD3 JUMPI DUP1 PUSH4 0x4BD46448 EQ PUSH2 0x193 JUMPI DUP1 PUSH4 0x5E6FEF01 EQ PUSH2 0x1A6 JUMPI DUP1 PUSH4 0x7DE14242 EQ PUSH2 0x1CE JUMPI DUP1 PUSH4 0x81AAF4CE EQ PUSH2 0x1F2 JUMPI PUSH1 0x0 DUP1 REVERT JUMPDEST DUP1 PUSH4 0x1D2CD644 EQ PUSH2 0xFA JUMPI DUP1 PUSH4 0x37EF0D2C EQ PUSH2 0x10F JUMPI DUP1 PUSH4 0x4129B2C9 EQ PUSH2 0x170 JUMPI JUMPDEST PUSH1 0x0 DUP1 REVERT JUMPDEST PUSH2 0x10D PUSH2 0x108 CALLDATASIZE PUSH1 0x4 PUSH2 0x1B88 JUMP JUMPDEST PUSH2 0x2DC JUMP JUMPDEST STOP JUMPDEST PUSH2 0x14E PUSH2 0x11D CALLDATASIZE PUSH1 0x4 PUSH2 0x1BB4 JUMP JUMPDEST PUSH1 0x3 PUSH1 0x20 SWAP1 DUP2 MSTORE PUSH1 0x0 SWAP3 DUP4 MSTORE PUSH1 0x40 DUP1 DUP5 KECCAK256 SWAP1 SWAP2 MSTORE SWAP1 DUP3 MSTORE SWAP1 KECCAK256 DUP1 SLOAD PUSH1 0x1 SWAP1 SWAP2 ADD SLOAD PUSH1 0xFF DUP1 DUP4 AND SWAP3 PUSH2 0x100 SWAP1 DIV AND SWAP1 DUP4 JUMP JUMPDEST PUSH1 0x40 DUP1 MLOAD SWAP4 ISZERO ISZERO DUP5 MSTORE SWAP2 ISZERO ISZERO PUSH1 0x20 DUP5 ADD MSTORE SWAP1 DUP3 ADD MSTORE PUSH1 0x60 ADD JUMPDEST PUSH1 0x40 MLOAD DUP1 SWAP2 SUB SWAP1 RETURN JUMPDEST PUSH2 0x183 PUSH2 0x17E CALLDATASIZE PUSH1 0x4 PUSH2 0x1BF0 JUMP JUMPDEST PUSH2 0x5AC JUMP JUMPDEST PUSH1 0x40 MLOAD PUSH2 0x167 SWAP5 SWAP4 SWAP3 SWAP2 SWAP1 PUSH2 0x1C4F JUMP JUMPDEST PUSH2 0x183 PUSH2 0x1A1 CALLDATASIZE PUSH1 0x4 PUSH2 0x1C8C JUMP JUMPDEST PUSH2 0x852 JUMP JUMPDEST PUSH2 0x1B9 PUSH2 0x1B4 CALLDATASIZE PUSH1 0x4 PUSH2 0x1BF0 JUMP JUMPDEST PUSH2 0xA36 JUMP JUMPDEST PUSH1 0x40 MLOAD PUSH2 0x167 SWAP10 SWAP9 SWAP8 SWAP7 SWAP6 SWAP5 SWAP4 SWAP3 SWAP2 SWAP1 PUSH2 0x1CE6 JUMP JUMPDEST PUSH2 0x1E1 PUSH2 0x1DC CALLDATASIZE PUSH1 0x4 PUSH2 0x1C8C JUMP JUMPDEST PUSH2 0xBA1 JUMP JUMPDEST PUSH1 0x40 MLOAD PUSH2 0x167 SWAP6 SWAP5 SWAP4 SWAP3 SWAP2 SWAP1 PUSH2 0x1D5D JUMP JUMPDEST PUSH2 0x10D PUSH2 0x200 CALLDATASIZE PUSH1 0x4 PUSH2 0x1BF0 JUMP JUMPDEST PUSH2 0xCEF JUMP JUMPDEST PUSH2 0x218 PUSH2 0x213 CALLDATASIZE PUSH1 0x4 PUSH2 0x1BB4 JUMP JUMPDEST PUSH2 0xF70 JUMP JUMPDEST PUSH1 0x40 DUP1 MLOAD SWAP3 ISZERO ISZERO DUP4 MSTORE SWAP1 ISZERO ISZERO PUSH1 0x20 DUP4 ADD MSTORE ADD PUSH2 0x167 JUMP JUMPDEST PUSH2 0x238 PUSH1 0x0 SLOAD DUP2 JUMP JUMPDEST PUSH1 0x40 MLOAD SWAP1 DUP2 MSTORE PUSH1 0x20 ADD PUSH2 0x167 JUMP JUMPDEST PUSH2 0x259 PUSH2 0x254 CALLDATASIZE PUSH1 0x4 PUSH2 0x1BF0 JUMP JUMPDEST PUSH2 0xFDD JUMP JUMPDEST PUSH1 0x40 MLOAD PUSH2 0x167 SWAP9 SWAP8 SWAP7 SWAP6 SWAP5 SWAP4 SWAP3 SWAP2 SWAP1 PUSH2 0x1DA2 JUMP JUMPDEST PUSH2 0x10D PUSH2 0x27B CALLDATASIZE PUSH1 0x4 PUSH2 0x1C8C JUMP JUMPDEST PUSH2 0x11A6 JUMP JUMPDEST PUSH2 0x238 PUSH2 0x28E CALLDATASIZE PUSH1 0x4 PUSH2 0x1E58 JUMP JUMPDEST PUSH2 0x134B JUMP JUMPDEST PUSH2 0x238 PUSH2 0x2A1 CALLDATASIZE PUSH1 0x4 PUSH2 0x1C8C JUMP JUMPDEST PUSH2 0x1572 JUMP JUMPDEST PUSH2 0x10D PUSH2 0x2B4 CALLDATASIZE PUSH1 0x4 PUSH2 0x1EC4 JUMP JUMPDEST PUSH2 0x15A1 JUMP JUMPDEST PUSH2 0x2CC PUSH2 0x2C7 CALLDATASIZE PUSH1 0x4 PUSH2 0x1BF0 JUMP JUMPDEST PUSH2 0x181A JUMP JUMPDEST PUSH1 0x40 MLOAD PUSH2 0x167 SWAP5 SWAP4 SWAP3 SWAP2 SWAP1 PUSH2 0x1FCE JUMP JUMPDEST PUSH1 0x0 DUP4 DUP2 MSTORE PUSH1 0x1 PUSH1 0x20 MSTORE PUSH1 0x40 SWAP1 KECCAK256 PUSH1 0x7 ADD SLOAD DUP4 SWAP1 PUSH1 0xFF AND PUSH2 0x318 JUMPI PUSH1 0x40 MLOAD PUSH3 0x461BCD PUSH1 0xE5 SHL DUP2 MSTORE PUSH1 0x4 ADD PUSH2 0x30F SWAP1 PUSH2 0x2026 JUMP JUMPDEST PUSH1 0x40 MLOAD DUP1 SWAP2 SUB SWAP1 REVERT JUMPDEST DUP4 PUSH1 0x2 DUP1 PUSH1 0x0 DUP4 DUP2 MSTORE PUSH1 0x1 PUSH1 0x20 MSTORE PUSH1 0x40 SWAP1 KECCAK256 PUSH1 0x3 SWAP1 DUP2 ADD SLOAD PUSH1 0x1 PUSH1 0xA0 SHL SWAP1 DIV PUSH1 0xFF AND SWAP1 DUP2 GT ISZERO PUSH2 0x34A JUMPI PUSH2 0x34A PUSH2 0x1CAE JUMP JUMPDEST EQ PUSH2 0x367 JUMPI PUSH1 0x40 MLOAD PUSH3 0x461BCD PUSH1 0xE5 SHL DUP2 MSTORE PUSH1 0x4 ADD PUSH2 0x30F SWAP1 PUSH2 0x205D JUMP JUMPDEST PUSH1 0x0 DUP7 DUP2 MSTORE PUSH1 0x3 PUSH1 0x20 SWAP1 DUP2 MSTORE PUSH1 0x40 DUP1 DUP4 KECCAK256 CALLER DUP5 MSTORE SWAP1 SWAP2 MSTORE SWAP1 KECCAK256 DUP1 SLOAD PUSH1 0xFF AND PUSH2 0x3D1 JUMPI PUSH1 0x40 MLOAD PUSH3 0x461BCD PUSH1 0xE5 SHL DUP2 MSTORE PUSH1 0x20 PUSH1 0x4 DUP3 ADD MSTORE PUSH1 0x1D PUSH1 0x24 DUP3 ADD MSTORE PUSH32 0x596F752068617665206E6F7420636F6D6D6974746564206120766F7465000000 PUSH1 0x44 DUP3 ADD MSTORE PUSH1 0x64 ADD PUSH2 0x30F JUMP JUMPDEST DUP1 SLOAD PUSH2 0x100 SWAP1 DIV PUSH1 0xFF AND ISZERO PUSH2 0x434 JUMPI PUSH1 0x40 MLOAD PUSH3 0x461BCD PUSH1 0xE5 SHL DUP2 MSTORE PUSH1 0x20 PUSH1 0x4 DUP3 ADD MSTORE PUSH1 0x23 PUSH1 0x24 DUP3 ADD MSTORE PUSH32 0x596F75206861766520616C72656164792072657665616C656420796F75722076 PUSH1 0x44 DUP3 ADD MSTORE PUSH3 0x6F7465 PUSH1 0xE8 SHL PUSH1 0x64 DUP3 ADD MSTORE PUSH1 0x84 ADD PUSH2 0x30F JUMP JUMPDEST PUSH1 0x0 DUP8 DUP2 MSTORE PUSH1 0x2 PUSH1 0x20 SWAP1 DUP2 MSTORE PUSH1 0x40 DUP1 DUP4 KECCAK256 DUP10 DUP5 MSTORE SWAP1 SWAP2 MSTORE SWAP1 KECCAK256 PUSH1 0x4 ADD SLOAD PUSH1 0xFF AND PUSH2 0x494 JUMPI PUSH1 0x40 MLOAD PUSH3 0x461BCD PUSH1 0xE5 SHL DUP2 MSTORE PUSH1 0x20 PUSH1 0x4 DUP3 ADD MSTORE PUSH1 0x11 PUSH1 0x24 DUP3 ADD MSTORE PUSH17 0x496E76616C69642063616E646964617465 PUSH1 0x78 SHL PUSH1 0x44 DUP3 ADD MSTORE PUSH1 0x64 ADD PUSH2 0x30F JUMP JUMPDEST PUSH1 0x40 DUP1 MLOAD PUSH1 0x20 DUP1 DUP3 ADD DUP10 SWAP1 MSTORE DUP2 DUP4 ADD DUP9 SWAP1 MSTORE DUP3 MLOAD DUP1 DUP4 SUB DUP5 ADD DUP2 MSTORE PUSH1 0x60 SWAP1 SWAP3 ADD SWAP1 SWAP3 MSTORE DUP1 MLOAD SWAP2 ADD KECCAK256 PUSH1 0x1 DUP3 ADD SLOAD DUP2 EQ PUSH2 0x50F JUMPI PUSH1 0x40 MLOAD PUSH3 0x461BCD PUSH1 0xE5 SHL DUP2 MSTORE PUSH1 0x20 PUSH1 0x4 DUP3 ADD MSTORE PUSH1 0x1D PUSH1 0x24 DUP3 ADD MSTORE PUSH32 0x48617368206D69736D617463683A20696E76616C69642072657665616C000000 PUSH1 0x44 DUP3 ADD MSTORE PUSH1 0x64 ADD PUSH2 0x30F JUMP JUMPDEST DUP2 SLOAD PUSH2 0xFF00 NOT AND PUSH2 0x100 OR DUP3 SSTORE PUSH1 0x0 DUP9 DUP2 MSTORE PUSH1 0x2 PUSH1 0x20 SWAP1 DUP2 MSTORE PUSH1 0x40 DUP1 DUP4 KECCAK256 DUP11 DUP5 MSTORE SWAP1 SWAP2 MSTORE DUP2 KECCAK256 PUSH1 0x3 ADD DUP1 SLOAD SWAP2 PUSH2 0x544 DUP4 PUSH2 0x20B6 JUMP JUMPDEST SWAP1 SWAP2 SSTORE POP POP PUSH1 0x0 DUP9 DUP2 MSTORE PUSH1 0x1 PUSH1 0x20 MSTORE PUSH1 0x40 DUP2 KECCAK256 PUSH1 0x6 ADD DUP1 SLOAD SWAP2 PUSH2 0x566 DUP4 PUSH2 0x20B6 JUMP JUMPDEST SWAP1 SWAP2 SSTORE POP POP PUSH1 0x40 MLOAD DUP8 DUP2 MSTORE CALLER SWAP1 DUP10 SWAP1 PUSH32 0xD5232B050E3221ADE5A3653733191681EF3BDE39C4530D87C9BB74004F99DADC SWAP1 PUSH1 0x20 ADD PUSH1 0x40 MLOAD DUP1 SWAP2 SUB SWAP1 LOG3 POP POP POP POP POP POP POP POP JUMP JUMPDEST PUSH1 0x0 DUP2 DUP2 MSTORE PUSH1 0x1 PUSH1 0x20 MSTORE PUSH1 0x40 DUP2 KECCAK256 PUSH1 0x7 ADD SLOAD PUSH1 0x60 SWAP1 DUP2 SWAP1 DUP4 SWAP1 DUP6 SWAP1 PUSH1 0xFF AND PUSH2 0x5E6 JUMPI PUSH1 0x40 MLOAD PUSH3 0x461BCD PUSH1 0xE5 SHL DUP2 MSTORE PUSH1 0x4 ADD PUSH2 0x30F SWAP1 PUSH2 0x2026 JUMP JUMPDEST DUP6 PUSH1 0x3 DUP1 PUSH1 0x0 DUP4 DUP2 MSTORE PUSH1 0x1 PUSH1 0x20 MSTORE PUSH1 0x40 SWAP1 KECCAK256 PUSH1 0x3 SWAP1 DUP2 ADD SLOAD PUSH1 0x1 PUSH1 0xA0 SHL SWAP1 DIV PUSH1 0xFF AND SWAP1 DUP2 GT ISZERO PUSH2 0x618 JUMPI PUSH2 0x618 PUSH2 0x1CAE JUMP JUMPDEST EQ PUSH2 0x635 JUMPI PUSH1 0x40 MLOAD PUSH3 0x461BCD PUSH1 0xE5 SHL DUP2 MSTORE PUSH1 0x4 ADD PUSH2 0x30F SWAP1 PUSH2 0x205D JUMP JUMPDEST PUSH1 0x0 DUP9 DUP2 MSTORE PUSH1 0x1 PUSH1 0x20 DUP2 SWAP1 MSTORE PUSH1 0x40 DUP3 KECCAK256 PUSH1 0x4 ADD SLOAD SWAP2 SWAP1 DUP2 SWAP1 JUMPDEST DUP4 DUP2 GT PUSH2 0x6AE JUMPI PUSH1 0x0 DUP13 DUP2 MSTORE PUSH1 0x2 PUSH1 0x20 SWAP1 DUP2 MSTORE PUSH1 0x40 DUP1 DUP4 KECCAK256 DUP5 DUP5 MSTORE SWAP1 SWAP2 MSTORE SWAP1 KECCAK256 PUSH1 0x3 ADD SLOAD DUP4 LT ISZERO PUSH2 0x69C JUMPI PUSH1 0x0 DUP13 DUP2 MSTORE PUSH1 0x2 PUSH1 0x20 SWAP1 DUP2 MSTORE PUSH1 0x40 DUP1 DUP4 KECCAK256 DUP5 DUP5 MSTORE SWAP1 SWAP2 MSTORE SWAP1 KECCAK256 PUSH1 0x3 ADD SLOAD SWAP3 POP SWAP1 POP DUP1 JUMPDEST DUP1 PUSH2 0x6A6 DUP2 PUSH2 0x20B6 JUMP JUMPDEST SWAP2 POP POP PUSH2 0x64E JUMP JUMPDEST POP DUP1 PUSH1 0x0 SUB PUSH2 0x6F3 JUMPI PUSH1 0x40 MLOAD PUSH3 0x461BCD PUSH1 0xE5 SHL DUP2 MSTORE PUSH1 0x20 PUSH1 0x4 DUP3 ADD MSTORE PUSH1 0x11 PUSH1 0x24 DUP3 ADD MSTORE PUSH17 0x139BC81D9BDD195CC81C995D99585B1959 PUSH1 0x7A SHL PUSH1 0x44 DUP3 ADD MSTORE PUSH1 0x64 ADD PUSH2 0x30F JUMP JUMPDEST PUSH1 0x0 DUP12 DUP2 MSTORE PUSH1 0x2 PUSH1 0x20 DUP2 DUP2 MSTORE PUSH1 0x40 DUP1 DUP5 KECCAK256 DUP6 DUP6 MSTORE SWAP1 SWAP2 MSTORE SWAP1 SWAP2 KECCAK256 DUP1 SLOAD PUSH1 0x3 DUP3 ADD SLOAD PUSH1 0x1 DUP4 ADD DUP1 SLOAD SWAP4 SWAP5 SWAP3 SWAP4 SWAP1 SWAP3 DUP6 ADD SWAP2 SWAP1 DUP4 SWAP1 PUSH2 0x72F SWAP1 PUSH2 0x20CF JUMP JUMPDEST DUP1 PUSH1 0x1F ADD PUSH1 0x20 DUP1 SWAP2 DIV MUL PUSH1 0x20 ADD PUSH1 0x40 MLOAD SWAP1 DUP2 ADD PUSH1 0x40 MSTORE DUP1 SWAP3 SWAP2 SWAP1 DUP2 DUP2 MSTORE PUSH1 0x20 ADD DUP3 DUP1 SLOAD PUSH2 0x75B SWAP1 PUSH2 0x20CF JUMP JUMPDEST DUP1 ISZERO PUSH2 0x7A8 JUMPI DUP1 PUSH1 0x1F LT PUSH2 0x77D JUMPI PUSH2 0x100 DUP1 DUP4 SLOAD DIV MUL DUP4 MSTORE SWAP2 PUSH1 0x20 ADD SWAP2 PUSH2 0x7A8 JUMP JUMPDEST DUP3 ADD SWAP2 SWAP1 PUSH1 0x0 MSTORE PUSH1 0x20 PUSH1 0x0 KECCAK256 SWAP1 JUMPDEST DUP2 SLOAD DUP2 MSTORE SWAP1 PUSH1 0x1 ADD SWAP1 PUSH1 0x20 ADD DUP1 DUP4 GT PUSH2 0x78B JUMPI DUP3 SWAP1 SUB PUSH1 0x1F AND DUP3 ADD SWAP2 JUMPDEST POP POP POP POP POP SWAP3 POP DUP2 DUP1 SLOAD PUSH2 0x7BB SWAP1 PUSH2 0x20CF JUMP JUMPDEST DUP1 PUSH1 0x1F ADD PUSH1 0x20 DUP1 SWAP2 DIV MUL PUSH1 0x20 ADD PUSH1 0x40 MLOAD SWAP1 DUP2 ADD PUSH1 0x40 MSTORE DUP1 SWAP3 SWAP2 SWAP1 DUP2 DUP2 MSTORE PUSH1 0x20 ADD DUP3 DUP1 SLOAD PUSH2 0x7E7 SWAP1 PUSH2 0x20CF JUMP JUMPDEST DUP1 ISZERO PUSH2 0x834 JUMPI DUP1 PUSH1 0x1F LT PUSH2 0x809 JUMPI PUSH2 0x100 DUP1 DUP4 SLOAD DIV MUL DUP4 MSTORE SWAP2 PUSH1 0x20 ADD SWAP2 PUSH2 0x834 JUMP JUMPDEST DUP3 ADD SWAP2 SWAP1 PUSH1 0x0 MSTORE PUSH1 0x20 PUSH1 0x0 KECCAK256 SWAP1 JUMPDEST DUP2 SLOAD DUP2 MSTORE SWAP1 PUSH1 0x1 ADD SWAP1 PUSH1 0x20 ADD DUP1 DUP4 GT PUSH2 0x817 JUMPI DUP3 SWAP1 SUB PUSH1 0x1F AND DUP3 ADD SWAP2 JUMPDEST POP POP POP POP POP SWAP2 POP SWAP11 POP SWAP11 POP SWAP11 POP SWAP11 POP POP POP POP POP JUMPDEST POP POP POP SWAP2 SWAP4 POP SWAP2 SWAP4 JUMP JUMPDEST PUSH1 0x0 DUP3 DUP2 MSTORE PUSH1 0x1 PUSH1 0x20 MSTORE PUSH1 0x40 DUP2 KECCAK256 PUSH1 0x7 ADD SLOAD PUSH1 0x60 SWAP1 DUP2 SWAP1 DUP4 SWAP1 DUP7 SWAP1 PUSH1 0xFF AND PUSH2 0x88C JUMPI PUSH1 0x40 MLOAD PUSH3 0x461BCD PUSH1 0xE5 SHL DUP2 MSTORE PUSH1 0x4 ADD PUSH2 0x30F SWAP1 PUSH2 0x2026 JUMP JUMPDEST PUSH1 0x0 DUP8 DUP2 MSTORE PUSH1 0x2 PUSH1 0x20 SWAP1 DUP2 MSTORE PUSH1 0x40 DUP1 DUP4 KECCAK256 DUP10 DUP5 MSTORE SWAP1 SWAP2 MSTORE SWAP1 KECCAK256 PUSH1 0x4 DUP2 ADD SLOAD PUSH1 0xFF AND PUSH2 0x8F9 JUMPI PUSH1 0x40 MLOAD PUSH3 0x461BCD PUSH1 0xE5 SHL DUP2 MSTORE PUSH1 0x20 PUSH1 0x4 DUP3 ADD MSTORE PUSH1 0x18 PUSH1 0x24 DUP3 ADD MSTORE PUSH32 0x43616E64696461746520646F6573206E6F742065786973740000000000000000 PUSH1 0x44 DUP3 ADD MSTORE PUSH1 0x64 ADD PUSH2 0x30F JUMP JUMPDEST DUP1 PUSH1 0x0 ADD SLOAD DUP2 PUSH1 0x1 ADD DUP3 PUSH1 0x2 ADD DUP4 PUSH1 0x3 ADD SLOAD DUP3 DUP1 SLOAD PUSH2 0x917 SWAP1 PUSH2 0x20CF JUMP JUMPDEST DUP1 PUSH1 0x1F ADD PUSH1 0x20 DUP1 SWAP2 DIV MUL PUSH1 0x20 ADD PUSH1 0x40 MLOAD SWAP1 DUP2 ADD PUSH1 0x40 MSTORE DUP1 SWAP3 SWAP2 SWAP1 DUP2 DUP2 MSTORE PUSH1 0x20 ADD DUP3 DUP1 SLOAD PUSH2 0x943 SWAP1 PUSH2 0x20CF JUMP JUMPDEST DUP1 ISZERO PUSH2 0x990 JUMPI DUP1 PUSH1 0x1F LT PUSH2 0x965 JUMPI PUSH2 0x100 DUP1 DUP4 SLOAD DIV MUL DUP4 MSTORE SWAP2 PUSH1 0x20 ADD SWAP2 PUSH2 0x990 JUMP JUMPDEST DUP3 ADD SWAP2 SWAP1 PUSH1 0x0 MSTORE PUSH1 0x20 PUSH1 0x0 KECCAK256 SWAP1 JUMPDEST DUP2 SLOAD DUP2 MSTORE SWAP1 PUSH1 0x1 ADD SWAP1 PUSH1 0x20 ADD DUP1 DUP4 GT PUSH2 0x973 JUMPI DUP3 SWAP1 SUB PUSH1 0x1F AND DUP3 ADD SWAP2 JUMPDEST POP POP POP POP POP SWAP3 POP DUP2 DUP1 SLOAD PUSH2 0x9A3 SWAP1 PUSH2 0x20CF JUMP JUMPDEST DUP1 PUSH1 0x1F ADD PUSH1 0x20 DUP1 SWAP2 DIV MUL PUSH1 0x20 ADD PUSH1 0x40 MLOAD SWAP1 DUP2 ADD PUSH1 0x40 MSTORE DUP1 SWAP3 SWAP2 SWAP1 DUP2 DUP2 MSTORE PUSH1 0x20 ADD DUP3 DUP1 SLOAD PUSH2 0x9CF SWAP1 PUSH2 0x20CF JUMP JUMPDEST DUP1 ISZERO PUSH2 0xA1C JUMPI DUP1 PUSH1 0x1F LT PUSH2 0x9F1 JUMPI PUSH2 0x100 DUP1 DUP4 SLOAD DIV MUL DUP4 MSTORE SWAP2 PUSH1 0x20 ADD SWAP2 PUSH2 0xA1C JUMP JUMPDEST DUP3 ADD SWAP2 SWAP1 PUSH1 0x0 MSTORE PUSH1 0x20 PUSH1 0x0 KECCAK256 SWAP1 JUMPDEST DUP2 SLOAD DUP2 MSTORE SWAP1 PUSH1 0x1 ADD SWAP1 PUSH1 0x20 ADD DUP1 DUP4 GT PUSH2 0x9FF JUMPI DUP3 SWAP1 SUB PUSH1 0x1F AND DUP3 ADD SWAP2 JUMPDEST POP POP POP POP POP SWAP2 POP SWAP6 POP SWAP6 POP SWAP6 POP SWAP6 POP POP POP SWAP3 SWAP6 SWAP2 SWAP5 POP SWAP3 POP JUMP JUMPDEST PUSH1 0x1 PUSH1 0x20 DUP2 SWAP1 MSTORE PUSH1 0x0 SWAP2 DUP3 MSTORE PUSH1 0x40 SWAP1 SWAP2 KECCAK256 DUP1 SLOAD SWAP2 DUP2 ADD DUP1 SLOAD PUSH2 0xA57 SWAP1 PUSH2 0x20CF JUMP JUMPDEST DUP1 PUSH1 0x1F ADD PUSH1 0x20 DUP1 SWAP2 DIV MUL PUSH1 0x20 ADD PUSH1 0x40 MLOAD SWAP1 DUP2 ADD PUSH1 0x40 MSTORE DUP1 SWAP3 SWAP2 SWAP1 DUP2 DUP2 MSTORE PUSH1 0x20 ADD DUP3 DUP1 SLOAD PUSH2 0xA83 SWAP1 PUSH2 0x20CF JUMP JUMPDEST DUP1 ISZERO PUSH2 0xAD0 JUMPI DUP1 PUSH1 0x1F LT PUSH2 0xAA5 JUMPI PUSH2 0x100 DUP1 DUP4 SLOAD DIV MUL DUP4 MSTORE SWAP2 PUSH1 0x20 ADD SWAP2 PUSH2 0xAD0 JUMP JUMPDEST DUP3 ADD SWAP2 SWAP1 PUSH1 0x0 MSTORE PUSH1 0x20 PUSH1 0x0 KECCAK256 SWAP1 JUMPDEST DUP2 SLOAD DUP2 MSTORE SWAP1 PUSH1 0x1 ADD SWAP1 PUSH1 0x20 ADD DUP1 DUP4 GT PUSH2 0xAB3 JUMPI DUP3 SWAP1 SUB PUSH1 0x1F AND DUP3 ADD SWAP2 JUMPDEST POP POP POP POP POP SWAP1 DUP1 PUSH1 0x2 ADD DUP1 SLOAD PUSH2 0xAE5 SWAP1 PUSH2 0x20CF JUMP JUMPDEST DUP1 PUSH1 0x1F ADD PUSH1 0x20 DUP1 SWAP2 DIV MUL PUSH1 0x20 ADD PUSH1 0x40 MLOAD SWAP1 DUP2 ADD PUSH1 0x40 MSTORE DUP1 SWAP3 SWAP2 SWAP1 DUP2 DUP2 MSTORE PUSH1 0x20 ADD DUP3 DUP1 SLOAD PUSH2 0xB11 SWAP1 PUSH2 0x20CF JUMP JUMPDEST DUP1 ISZERO PUSH2 0xB5E JUMPI DUP1 PUSH1 0x1F LT PUSH2 0xB33 JUMPI PUSH2 0x100 DUP1 DUP4 SLOAD DIV MUL DUP4 MSTORE SWAP2 PUSH1 0x20 ADD SWAP2 PUSH2 0xB5E JUMP JUMPDEST DUP3 ADD SWAP2 SWAP1 PUSH1 0x0 MSTORE PUSH1 0x20 PUSH1 0x0 KECCAK256 SWAP1 JUMPDEST DUP2 SLOAD DUP2 MSTORE SWAP1 PUSH1 0x1 ADD SWAP1 PUSH1 0x20 ADD DUP1 DUP4 GT PUSH2 0xB41 JUMPI DUP3 SWAP1 SUB PUSH1 0x1F AND DUP3 ADD SWAP2 JUMPDEST POP POP POP PUSH1 0x3 DUP5 ADD SLOAD PUSH1 0x4 DUP6 ADD SLOAD PUSH1 0x5 DUP7 ADD SLOAD PUSH1 0x6 DUP8 ADD SLOAD PUSH1 0x7 SWAP1 SWAP8 ADD SLOAD SWAP6 SWAP7 PUSH1 0x1 PUSH1 0x1 PUSH1 0xA0 SHL SUB DUP5 AND SWAP7 PUSH1 0xFF PUSH1 0x1 PUSH1 0xA0 SHL SWAP1 SWAP6 DIV DUP6 AND SWAP7 POP SWAP3 SWAP5 POP SWAP1 SWAP3 SWAP1 SWAP2 AND DUP10 JUMP JUMPDEST PUSH1 0x2 PUSH1 0x20 SWAP1 DUP2 MSTORE PUSH1 0x0 SWAP3 DUP4 MSTORE PUSH1 0x40 DUP1 DUP5 KECCAK256 SWAP1 SWAP2 MSTORE SWAP1 DUP3 MSTORE SWAP1 KECCAK256 DUP1 SLOAD PUSH1 0x1 DUP3 ADD DUP1 SLOAD SWAP2 SWAP3 SWAP2 PUSH2 0xBCE SWAP1 PUSH2 0x20CF JUMP JUMPDEST DUP1 PUSH1 0x1F ADD PUSH1 0x20 DUP1 SWAP2 DIV MUL PUSH1 0x20 ADD PUSH1 0x40 MLOAD SWAP1 DUP2 ADD PUSH1 0x40 MSTORE DUP1 SWAP3 SWAP2 SWAP1 DUP2 DUP2 MSTORE PUSH1 0x20 ADD DUP3 DUP1 SLOAD PUSH2 0xBFA SWAP1 PUSH2 0x20CF JUMP JUMPDEST DUP1 ISZERO PUSH2 0xC47 JUMPI DUP1 PUSH1 0x1F LT PUSH2 0xC1C JUMPI PUSH2 0x100 DUP1 DUP4 SLOAD DIV MUL DUP4 MSTORE SWAP2 PUSH1 0x20 ADD SWAP2 PUSH2 0xC47 JUMP JUMPDEST DUP3 ADD SWAP2 SWAP1 PUSH1 0x0 MSTORE PUSH1 0x20 PUSH1 0x0 KECCAK256 SWAP1 JUMPDEST DUP2 SLOAD DUP2 MSTORE SWAP1 PUSH1 0x1 ADD SWAP1 PUSH1 0x20 ADD DUP1 DUP4 GT PUSH2 0xC2A JUMPI DUP3 SWAP1 SUB PUSH1 0x1F AND DUP3 ADD SWAP2 JUMPDEST POP POP POP POP POP SWAP1 DUP1 PUSH1 0x2 ADD DUP1 SLOAD PUSH2 0xC5C SWAP1 PUSH2 0x20CF JUMP JUMPDEST DUP1 PUSH1 0x1F ADD PUSH1 0x20 DUP1 SWAP2 DIV MUL PUSH1 0x20 ADD PUSH1 0x40 MLOAD SWAP1 DUP2 ADD PUSH1 0x40 MSTORE DUP1 SWAP3 SWAP2 SWAP1 DUP2 DUP2 MSTORE PUSH1 0x20 ADD DUP3 DUP1 SLOAD PUSH2 0xC88 SWAP1 PUSH2 0x20CF JUMP JUMPDEST DUP1 ISZERO PUSH2 0xCD5 JUMPI DUP1 PUSH1 0x1F LT PUSH2 0xCAA JUMPI PUSH2 0x100 DUP1 DUP4 SLOAD DIV MUL DUP4 MSTORE SWAP2 PUSH1 0x20 ADD SWAP2 PUSH2 0xCD5 JUMP JUMPDEST DUP3 ADD SWAP2 SWAP1 PUSH1 0x0 MSTORE PUSH1 0x20 PUSH1 0x0 KECCAK256 SWAP1 JUMPDEST DUP2 SLOAD DUP2 MSTORE SWAP1 PUSH1 0x1 ADD SWAP1 PUSH1 0x20 ADD DUP1 DUP4 GT PUSH2 0xCB8 JUMPI DUP3 SWAP1 SUB PUSH1 0x1F AND DUP3 ADD SWAP2 JUMPDEST POP POP POP POP PUSH1 0x3 DUP4 ADD SLOAD PUSH1 0x4 SWAP1 SWAP4 ADD SLOAD SWAP2 SWAP3 SWAP2 PUSH1 0xFF AND SWAP1 POP DUP6 JUMP JUMPDEST PUSH1 0x0 DUP2 DUP2 MSTORE PUSH1 0x1 PUSH1 0x20 MSTORE PUSH1 0x40 SWAP1 KECCAK256 PUSH1 0x7 ADD SLOAD DUP2 SWAP1 PUSH1 0xFF AND PUSH2 0xD22 JUMPI PUSH1 0x40 MLOAD PUSH3 0x461BCD PUSH1 0xE5 SHL DUP2 MSTORE PUSH1 0x4 ADD PUSH2 0x30F SWAP1 PUSH2 0x2026 JUMP JUMPDEST PUSH1 0x0 DUP2 DUP2 MSTORE PUSH1 0x1 PUSH1 0x20 MSTORE PUSH1 0x40 SWAP1 KECCAK256 PUSH1 0x3 ADD SLOAD PUSH1 0x1 PUSH1 0x1 PUSH1 0xA0 SHL SUB AND CALLER EQ PUSH2 0xD5B JUMPI PUSH1 0x40 MLOAD PUSH3 0x461BCD PUSH1 0xE5 SHL DUP2 MSTORE PUSH1 0x4 ADD PUSH2 0x30F SWAP1 PUSH2 0x2109 JUMP JUMPDEST PUSH1 0x0 DUP3 DUP2 MSTORE PUSH1 0x1 PUSH1 0x20 MSTORE PUSH1 0x40 DUP2 KECCAK256 SWAP1 PUSH1 0x3 DUP3 DUP2 ADD SLOAD PUSH1 0x1 PUSH1 0xA0 SHL SWAP1 DIV PUSH1 0xFF AND SWAP1 DUP2 GT ISZERO PUSH2 0xD8A JUMPI PUSH2 0xD8A PUSH2 0x1CAE JUMP JUMPDEST SUB PUSH2 0xE12 JUMPI PUSH1 0x2 DUP2 PUSH1 0x4 ADD SLOAD LT ISZERO PUSH2 0xDF0 JUMPI PUSH1 0x40 MLOAD PUSH3 0x461BCD PUSH1 0xE5 SHL DUP2 MSTORE PUSH1 0x20 PUSH1 0x4 DUP3 ADD MSTORE PUSH1 0x23 PUSH1 0x24 DUP3 ADD MSTORE PUSH32 0x4E656564206174206C6561737420322063616E6469646174657320746F207374 PUSH1 0x44 DUP3 ADD MSTORE PUSH3 0x185C9D PUSH1 0xEA SHL PUSH1 0x64 DUP3 ADD MSTORE PUSH1 0x84 ADD PUSH2 0x30F JUMP JUMPDEST PUSH1 0x3 DUP2 ADD DUP1 SLOAD PUSH1 0x1 SWAP2 SWAP1 PUSH1 0xFF PUSH1 0xA0 SHL NOT AND PUSH1 0x1 PUSH1 0xA0 SHL DUP4 JUMPDEST MUL OR SWAP1 SSTORE POP PUSH2 0xF23 JUMP JUMPDEST PUSH1 0x1 PUSH1 0x3 DUP3 DUP2 ADD SLOAD PUSH1 0x1 PUSH1 0xA0 SHL SWAP1 DIV PUSH1 0xFF AND SWAP1 DUP2 GT ISZERO PUSH2 0xE34 JUMPI PUSH2 0xE34 PUSH2 0x1CAE JUMP JUMPDEST SUB PUSH2 0xEA2 JUMPI PUSH1 0x0 DUP2 PUSH1 0x5 ADD SLOAD GT PUSH2 0xE86 JUMPI PUSH1 0x40 MLOAD PUSH3 0x461BCD PUSH1 0xE5 SHL DUP2 MSTORE PUSH1 0x20 PUSH1 0x4 DUP3 ADD MSTORE PUSH1 0x16 PUSH1 0x24 DUP3 ADD MSTORE PUSH22 0x139BC81D9BDD195CC818DBDB5B5A5D1D1959081E595D PUSH1 0x52 SHL PUSH1 0x44 DUP3 ADD MSTORE PUSH1 0x64 ADD PUSH2 0x30F JUMP JUMPDEST PUSH1 0x3 DUP2 ADD DUP1 SLOAD PUSH1 0x2 SWAP2 SWAP1 PUSH1 0xFF PUSH1 0xA0 SHL NOT AND PUSH1 0x1 PUSH1 0xA0 SHL DUP4 PUSH2 0xE08 JUMP JUMPDEST PUSH1 0x2 PUSH1 0x3 DUP3 DUP2 ADD SLOAD PUSH1 0x1 PUSH1 0xA0 SHL SWAP1 DIV PUSH1 0xFF AND SWAP1 DUP2 GT ISZERO PUSH2 0xEC4 JUMPI PUSH2 0xEC4 PUSH2 0x1CAE JUMP JUMPDEST SUB PUSH2 0xEE2 JUMPI PUSH1 0x3 DUP2 DUP2 ADD DUP1 SLOAD PUSH1 0xFF PUSH1 0xA0 SHL NOT AND PUSH1 0x1 PUSH1 0xA0 SHL DUP4 PUSH2 0xE08 JUMP JUMPDEST PUSH1 0x40 MLOAD PUSH3 0x461BCD PUSH1 0xE5 SHL DUP2 MSTORE PUSH1 0x20 PUSH1 0x4 DUP3 ADD MSTORE PUSH1 0x16 PUSH1 0x24 DUP3 ADD MSTORE PUSH22 0x115B1958DD1A5BDB88185B1C9958591E48195B991959 PUSH1 0x52 SHL PUSH1 0x44 DUP3 ADD MSTORE PUSH1 0x64 ADD PUSH2 0x30F JUMP JUMPDEST PUSH1 0x3 DUP2 ADD SLOAD PUSH1 0x40 MLOAD DUP5 SWAP2 PUSH32 0x70ECA82567B065893A5E6CC590178B6B320855676B6A9A066625933E0C8EBE58 SWAP2 PUSH2 0xF63 SWAP2 PUSH1 0x1 PUSH1 0xA0 SHL SWAP1 DIV PUSH1 0xFF AND SWAP1 PUSH2 0x214B JUMP JUMPDEST PUSH1 0x40 MLOAD DUP1 SWAP2 SUB SWAP1 LOG2 POP POP POP JUMP JUMPDEST PUSH1 0x0 DUP3 DUP2 MSTORE PUSH1 0x1 PUSH1 0x20 MSTORE PUSH1 0x40 DUP2 KECCAK256 PUSH1 0x7 ADD SLOAD DUP2 SWAP1 DUP5 SWAP1 PUSH1 0xFF AND PUSH2 0xFA5 JUMPI PUSH1 0x40 MLOAD PUSH3 0x461BCD PUSH1 0xE5 SHL DUP2 MSTORE PUSH1 0x4 ADD PUSH2 0x30F SWAP1 PUSH2 0x2026 JUMP JUMPDEST POP POP POP PUSH1 0x0 SWAP2 DUP3 MSTORE PUSH1 0x3 PUSH1 0x20 SWAP1 DUP2 MSTORE PUSH1 0x40 DUP1 DUP5 KECCAK256 PUSH1 0x1 PUSH1 0x1 PUSH1 0xA0 SHL SUB SWAP4 SWAP1 SWAP4 AND DUP5 MSTORE SWAP2 SWAP1 MSTORE SWAP1 KECCAK256 SLOAD PUSH1 0xFF DUP1 DUP3 AND SWAP3 PUSH2 0x100 SWAP1 SWAP3 DIV AND SWAP1 JUMP JUMPDEST PUSH1 0x0 DUP2 DUP2 MSTORE PUSH1 0x1 PUSH1 0x20 MSTORE PUSH1 0x40 DUP2 KECCAK256 PUSH1 0x7 ADD SLOAD PUSH1 0x60 SWAP1 DUP2 SWAP1 DUP4 SWAP1 DUP2 SWAP1 DUP2 SWAP1 DUP2 SWAP1 DUP2 SWAP1 DUP10 SWAP1 PUSH1 0xFF AND PUSH2 0x101F JUMPI PUSH1 0x40 MLOAD PUSH3 0x461BCD PUSH1 0xE5 SHL DUP2 MSTORE PUSH1 0x4 ADD PUSH2 0x30F SWAP1 PUSH2 0x2026 JUMP JUMPDEST PUSH1 0x0 DUP11 DUP2 MSTORE PUSH1 0x1 PUSH1 0x20 DUP2 SWAP1 MSTORE PUSH1 0x40 SWAP1 SWAP2 KECCAK256 DUP1 SLOAD PUSH1 0x3 DUP3 ADD SLOAD PUSH1 0x4 DUP4 ADD SLOAD PUSH1 0x5 DUP5 ADD SLOAD PUSH1 0x6 DUP6 ADD SLOAD SWAP6 DUP6 ADD DUP1 SLOAD SWAP6 SWAP7 SWAP5 SWAP6 SWAP1 SWAP5 PUSH1 0x2 DUP9 ADD SWAP5 PUSH1 0x1 PUSH1 0x1 PUSH1 0xA0 SHL SUB DUP2 AND SWAP5 PUSH1 0x1 PUSH1 0xA0 SHL SWAP1 SWAP2 DIV PUSH1 0xFF AND SWAP4 SWAP1 SWAP3 SWAP1 SWAP2 SWAP1 DUP8 SWAP1 PUSH2 0x107D SWAP1 PUSH2 0x20CF JUMP JUMPDEST DUP1 PUSH1 0x1F ADD PUSH1 0x20 DUP1 SWAP2 DIV MUL PUSH1 0x20 ADD PUSH1 0x40 MLOAD SWAP1 DUP2 ADD PUSH1 0x40 MSTORE DUP1 SWAP3 SWAP2 SWAP1 DUP2 DUP2 MSTORE PUSH1 0x20 ADD DUP3 DUP1 SLOAD PUSH2 0x10A9 SWAP1 PUSH2 0x20CF JUMP JUMPDEST DUP1 ISZERO PUSH2 0x10F6 JUMPI DUP1 PUSH1 0x1F LT PUSH2 0x10CB JUMPI PUSH2 0x100 DUP1 DUP4 SLOAD DIV MUL DUP4 MSTORE SWAP2 PUSH1 0x20 ADD SWAP2 PUSH2 0x10F6 JUMP JUMPDEST DUP3 ADD SWAP2 SWAP1 PUSH1 0x0 MSTORE PUSH1 0x20 PUSH1 0x0 KECCAK256 SWAP1 JUMPDEST DUP2 SLOAD DUP2 MSTORE SWAP1 PUSH1 0x1 ADD SWAP1 PUSH1 0x20 ADD DUP1 DUP4 GT PUSH2 0x10D9 JUMPI DUP3 SWAP1 SUB PUSH1 0x1F AND DUP3 ADD SWAP2 JUMPDEST POP POP POP POP POP SWAP7 POP DUP6 DUP1 SLOAD PUSH2 0x1109 SWAP1 PUSH2 0x20CF JUMP JUMPDEST DUP1 PUSH1 0x1F ADD PUSH1 0x20 DUP1 SWAP2 DIV MUL PUSH1 0x20 ADD PUSH1 0x40 MLOAD SWAP1 DUP2 ADD PUSH1 0x40 MSTORE DUP1 SWAP3 SWAP2 SWAP1 DUP2 DUP2 MSTORE PUSH1 0x20 ADD DUP3 DUP1 SLOAD PUSH2 0x1135 SWAP1 PUSH2 0x20CF JUMP JUMPDEST DUP1 ISZERO PUSH2 0x1182 JUMPI DUP1 PUSH1 0x1F LT PUSH2 0x1157 JUMPI PUSH2 0x100 DUP1 DUP4 SLOAD DIV MUL DUP4 MSTORE SWAP2 PUSH1 0x20 ADD SWAP2 PUSH2 0x1182 JUMP JUMPDEST DUP3 ADD SWAP2 SWAP1 PUSH1 0x0 MSTORE PUSH1 0x20 PUSH1 0x0 KECCAK256 SWAP1 JUMPDEST DUP2 SLOAD DUP2 MSTORE SWAP1 PUSH1 0x1 ADD SWAP1 PUSH1 0x20 ADD DUP1 DUP4 GT PUSH2 0x1165 JUMPI DUP3 SWAP1 SUB PUSH1 0x1F AND DUP3 ADD SWAP2 JUMPDEST POP POP POP POP POP SWAP6 POP SWAP10 POP SWAP10 POP SWAP10 POP SWAP10 POP SWAP10 POP SWAP10 POP SWAP10 POP SWAP10 POP POP POP SWAP2 SWAP4 SWAP6 SWAP8 POP SWAP2 SWAP4 SWAP6 SWAP8 JUMP JUMPDEST PUSH1 0x0 DUP3 DUP2 MSTORE PUSH1 0x1 PUSH1 0x20 MSTORE PUSH1 0x40 SWAP1 KECCAK256 PUSH1 0x7 ADD SLOAD DUP3 SWAP1 PUSH1 0xFF AND PUSH2 0x11D9 JUMPI PUSH1 0x40 MLOAD PUSH3 0x461BCD PUSH1 0xE5 SHL DUP2 MSTORE PUSH1 0x4 ADD PUSH2 0x30F SWAP1 PUSH2 0x2026 JUMP JUMPDEST DUP3 PUSH1 0x1 DUP1 PUSH1 0x0 DUP4 DUP2 MSTORE PUSH1 0x1 PUSH1 0x20 MSTORE PUSH1 0x40 SWAP1 KECCAK256 PUSH1 0x3 SWAP1 DUP2 ADD SLOAD PUSH1 0x1 PUSH1 0xA0 SHL SWAP1 DIV PUSH1 0xFF AND SWAP1 DUP2 GT ISZERO PUSH2 0x120B JUMPI PUSH2 0x120B PUSH2 0x1CAE JUMP JUMPDEST EQ PUSH2 0x1228 JUMPI PUSH1 0x40 MLOAD PUSH3 0x461BCD PUSH1 0xE5 SHL DUP2 MSTORE PUSH1 0x4 ADD PUSH2 0x30F SWAP1 PUSH2 0x205D JUMP JUMPDEST PUSH1 0x0 DUP6 DUP2 MSTORE PUSH1 0x3 PUSH1 0x20 SWAP1 DUP2 MSTORE PUSH1 0x40 DUP1 DUP4 KECCAK256 CALLER DUP5 MSTORE SWAP1 SWAP2 MSTORE SWAP1 KECCAK256 DUP1 SLOAD PUSH1 0xFF AND ISZERO PUSH2 0x129D JUMPI PUSH1 0x40 MLOAD PUSH3 0x461BCD PUSH1 0xE5 SHL DUP2 MSTORE PUSH1 0x20 PUSH1 0x4 DUP3 ADD MSTORE PUSH1 0x21 PUSH1 0x24 DUP3 ADD MSTORE PUSH32 0x596F75206861766520616C726561647920636F6D6D6974746564206120766F74 PUSH1 0x44 DUP3 ADD MSTORE PUSH1 0x65 PUSH1 0xF8 SHL PUSH1 0x64 DUP3 ADD MSTORE PUSH1 0x84 ADD PUSH2 0x30F JUMP JUMPDEST DUP5 PUSH2 0x12E0 JUMPI PUSH1 0x40 MLOAD PUSH3 0x461BCD PUSH1 0xE5 SHL DUP2 MSTORE PUSH1 0x20 PUSH1 0x4 DUP3 ADD MSTORE PUSH1 0x13 PUSH1 0x24 DUP3 ADD MSTORE PUSH19 0x92DCECC2D8D2C840C6DEDADAD2E840D0C2E6D PUSH1 0x6B SHL PUSH1 0x44 DUP3 ADD MSTORE PUSH1 0x64 ADD PUSH2 0x30F JUMP JUMPDEST DUP1 SLOAD PUSH1 0xFF NOT AND PUSH1 0x1 SWAP1 DUP2 OR DUP3 SSTORE DUP2 DUP2 ADD DUP7 SWAP1 SSTORE PUSH1 0x0 DUP8 DUP2 MSTORE PUSH1 0x20 SWAP2 SWAP1 SWAP2 MSTORE PUSH1 0x40 DUP2 KECCAK256 PUSH1 0x5 ADD DUP1 SLOAD SWAP2 PUSH2 0x1311 DUP4 PUSH2 0x20B6 JUMP JUMPDEST SWAP1 SWAP2 SSTORE POP POP PUSH1 0x40 MLOAD CALLER SWAP1 DUP8 SWAP1 PUSH32 0x3834A2C8EA101E1468B529270D35FBFF0A12DE32A5A7E5729B8B4DAD6FB32C01 SWAP1 PUSH1 0x0 SWAP1 LOG3 POP POP POP POP POP POP JUMP JUMPDEST PUSH1 0x0 DUP4 PUSH2 0x1392 JUMPI PUSH1 0x40 MLOAD PUSH3 0x461BCD PUSH1 0xE5 SHL DUP2 MSTORE PUSH1 0x20 PUSH1 0x4 DUP3 ADD MSTORE PUSH1 0x15 PUSH1 0x24 DUP3 ADD MSTORE PUSH21 0x5469746C652063616E6E6F7420626520656D707479 PUSH1 0x58 SHL PUSH1 0x44 DUP3 ADD MSTORE PUSH1 0x64 ADD PUSH2 0x30F JUMP JUMPDEST PUSH1 0x0 DUP1 SLOAD SWAP1 DUP1 PUSH2 0x13A1 DUP4 PUSH2 0x20B6 JUMP JUMPDEST SWAP2 SWAP1 POP SSTORE POP PUSH1 0x40 MLOAD DUP1 PUSH2 0x120 ADD PUSH1 0x40 MSTORE DUP1 PUSH1 0x0 SLOAD DUP2 MSTORE PUSH1 0x20 ADD DUP7 DUP7 DUP1 DUP1 PUSH1 0x1F ADD PUSH1 0x20 DUP1 SWAP2 DIV MUL PUSH1 0x20 ADD PUSH1 0x40 MLOAD SWAP1 DUP2 ADD PUSH1 0x40 MSTORE DUP1 SWAP4 SWAP3 SWAP2 SWAP1 DUP2 DUP2 MSTORE PUSH1 0x20 ADD DUP4 DUP4 DUP1 DUP3 DUP5 CALLDATACOPY PUSH1 0x0 SWAP3 ADD SWAP2 SWAP1 SWAP2 MSTORE POP POP POP SWAP1 DUP3 MSTORE POP PUSH1 0x40 DUP1 MLOAD PUSH1 0x20 PUSH1 0x1F DUP8 ADD DUP2 SWAP1 DIV DUP2 MUL DUP3 ADD DUP2 ADD SWAP1 SWAP3 MSTORE DUP6 DUP2 MSTORE SWAP2 DUP2 ADD SWAP2 SWAP1 DUP7 SWAP1 DUP7 SWAP1 DUP2 SWAP1 DUP5 ADD DUP4 DUP3 DUP1 DUP3 DUP5 CALLDATACOPY PUSH1 0x0 SWAP3 ADD DUP3 SWAP1 MSTORE POP SWAP4 DUP6 MSTORE POP POP CALLER PUSH1 0x20 DUP5 ADD MSTORE POP PUSH1 0x40 SWAP1 SWAP2 ADD SWAP1 DUP2 MSTORE PUSH1 0x0 PUSH1 0x20 DUP1 DUP4 ADD DUP3 SWAP1 MSTORE PUSH1 0x40 DUP1 DUP5 ADD DUP4 SWAP1 MSTORE PUSH1 0x60 DUP5 ADD DUP4 SWAP1 MSTORE PUSH1 0x1 PUSH1 0x80 SWAP1 SWAP5 ADD DUP5 SWAP1 MSTORE DUP3 SLOAD DUP4 MSTORE DUP4 DUP3 MSTORE SWAP1 SWAP2 KECCAK256 DUP4 MLOAD DUP2 SSTORE SWAP1 DUP4 ADD MLOAD SWAP1 SWAP2 DUP3 ADD SWAP1 PUSH2 0x147F SWAP1 DUP3 PUSH2 0x21BE JUMP JUMPDEST POP PUSH1 0x40 DUP3 ADD MLOAD PUSH1 0x2 DUP3 ADD SWAP1 PUSH2 0x1494 SWAP1 DUP3 PUSH2 0x21BE JUMP JUMPDEST POP PUSH1 0x60 DUP3 ADD MLOAD PUSH1 0x3 DUP1 DUP4 ADD DUP1 SLOAD PUSH1 0x1 PUSH1 0x1 PUSH1 0xA0 SHL SUB SWAP1 SWAP4 AND PUSH1 0x1 PUSH1 0x1 PUSH1 0xA0 SHL SUB NOT DUP5 AND DUP2 OR DUP3 SSTORE PUSH1 0x80 DUP7 ADD MLOAD SWAP4 SWAP2 SWAP3 PUSH1 0x1 PUSH1 0x1 PUSH1 0xA8 SHL SUB NOT SWAP1 SWAP3 AND OR SWAP1 PUSH1 0x1 PUSH1 0xA0 SHL SWAP1 DUP5 SWAP1 DUP2 GT ISZERO PUSH2 0x14E8 JUMPI PUSH2 0x14E8 PUSH2 0x1CAE JUMP JUMPDEST MUL OR SWAP1 SSTORE POP PUSH1 0xA0 DUP3 ADD MLOAD PUSH1 0x4 DUP3 ADD SSTORE PUSH1 0xC0 DUP3 ADD MLOAD PUSH1 0x5 DUP3 ADD SSTORE PUSH1 0xE0 DUP3 ADD MLOAD PUSH1 0x6 DUP3 ADD SSTORE PUSH2 0x100 SWAP1 SWAP2 ADD MLOAD PUSH1 0x7 SWAP1 SWAP2 ADD DUP1 SLOAD PUSH1 0xFF NOT AND SWAP2 ISZERO ISZERO SWAP2 SWAP1 SWAP2 OR SWAP1 SSTORE PUSH1 0x0 SLOAD PUSH1 0x40 MLOAD CALLER SWAP2 SWAP1 PUSH32 0x86A3370600C4089C572E5FA1F974825253DA2BE6295EB9E0EEF3423AEBD991B0 SWAP1 PUSH2 0x155E SWAP1 DUP10 SWAP1 DUP10 SWAP1 PUSH2 0x22A7 JUMP JUMPDEST PUSH1 0x40 MLOAD DUP1 SWAP2 SUB SWAP1 LOG3 POP PUSH1 0x0 SLOAD SWAP5 SWAP4 POP POP POP POP JUMP JUMPDEST PUSH1 0x40 DUP1 MLOAD PUSH1 0x20 DUP1 DUP3 ADD DUP6 SWAP1 MSTORE DUP2 DUP4 ADD DUP5 SWAP1 MSTORE DUP3 MLOAD DUP1 DUP4 SUB DUP5 ADD DUP2 MSTORE PUSH1 0x60 SWAP1 SWAP3 ADD SWAP1 SWAP3 MSTORE DUP1 MLOAD SWAP2 ADD KECCAK256 JUMPDEST SWAP3 SWAP2 POP POP JUMP JUMPDEST PUSH1 0x0 DUP6 DUP2 MSTORE PUSH1 0x1 PUSH1 0x20 MSTORE PUSH1 0x40 SWAP1 KECCAK256 PUSH1 0x7 ADD SLOAD DUP6 SWAP1 PUSH1 0xFF AND PUSH2 0x15D4 JUMPI PUSH1 0x40 MLOAD PUSH3 0x461BCD PUSH1 0xE5 SHL DUP2 MSTORE PUSH1 0x4 ADD PUSH2 0x30F SWAP1 PUSH2 0x2026 JUMP JUMPDEST PUSH1 0x0 DUP2 DUP2 MSTORE PUSH1 0x1 PUSH1 0x20 MSTORE PUSH1 0x40 SWAP1 KECCAK256 PUSH1 0x3 ADD SLOAD PUSH1 0x1 PUSH1 0x1 PUSH1 0xA0 SHL SUB AND CALLER EQ PUSH2 0x160D JUMPI PUSH1 0x40 MLOAD PUSH3 0x461BCD PUSH1 0xE5 SHL DUP2 MSTORE PUSH1 0x4 ADD PUSH2 0x30F SWAP1 PUSH2 0x2109 JUMP JUMPDEST DUP6 PUSH1 0x0 DUP1 PUSH1 0x0 DUP4 DUP2 MSTORE PUSH1 0x1 PUSH1 0x20 MSTORE PUSH1 0x40 SWAP1 KECCAK256 PUSH1 0x3 SWAP1 DUP2 ADD SLOAD PUSH1 0x1 PUSH1 0xA0 SHL SWAP1 DIV PUSH1 0xFF AND SWAP1 DUP2 GT ISZERO PUSH2 0x163F JUMPI PUSH2 0x163F PUSH2 0x1CAE JUMP JUMPDEST EQ PUSH2 0x165C JUMPI PUSH1 0x40 MLOAD PUSH3 0x461BCD PUSH1 0xE5 SHL DUP2 MSTORE PUSH1 0x4 ADD PUSH2 0x30F SWAP1 PUSH2 0x205D JUMP JUMPDEST DUP6 PUSH2 0x16A9 JUMPI PUSH1 0x40 MLOAD PUSH3 0x461BCD PUSH1 0xE5 SHL DUP2 MSTORE PUSH1 0x20 PUSH1 0x4 DUP3 ADD MSTORE PUSH1 0x1E PUSH1 0x24 DUP3 ADD MSTORE PUSH32 0x43616E646964617465206E616D652063616E6E6F7420626520656D7074790000 PUSH1 0x44 DUP3 ADD MSTORE PUSH1 0x64 ADD PUSH2 0x30F JUMP JUMPDEST PUSH1 0x0 DUP9 DUP2 MSTORE PUSH1 0x1 PUSH1 0x20 MSTORE PUSH1 0x40 DUP2 KECCAK256 PUSH1 0x4 DUP2 ADD DUP1 SLOAD SWAP2 SWAP3 PUSH2 0x16C8 DUP4 PUSH2 0x20B6 JUMP JUMPDEST SWAP2 SWAP1 POP SSTORE POP PUSH1 0x40 MLOAD DUP1 PUSH1 0xA0 ADD PUSH1 0x40 MSTORE DUP1 DUP3 PUSH1 0x4 ADD SLOAD DUP2 MSTORE PUSH1 0x20 ADD DUP10 DUP10 DUP1 DUP1 PUSH1 0x1F ADD PUSH1 0x20 DUP1 SWAP2 DIV MUL PUSH1 0x20 ADD PUSH1 0x40 MLOAD SWAP1 DUP2 ADD PUSH1 0x40 MSTORE DUP1 SWAP4 SWAP3 SWAP2 SWAP1 DUP2 DUP2 MSTORE PUSH1 0x20 ADD DUP4 DUP4 DUP1 DUP3 DUP5 CALLDATACOPY PUSH1 0x0 SWAP3 ADD SWAP2 SWAP1 SWAP2 MSTORE POP POP POP SWAP1 DUP3 MSTORE POP PUSH1 0x40 DUP1 MLOAD PUSH1 0x20 PUSH1 0x1F DUP11 ADD DUP2 SWAP1 DIV DUP2 MUL DUP3 ADD DUP2 ADD SWAP1 SWAP3 MSTORE DUP9 DUP2 MSTORE SWAP2 DUP2 ADD SWAP2 SWAP1 DUP10 SWAP1 DUP10 SWAP1 DUP2 SWAP1 DUP5 ADD DUP4 DUP3 DUP1 DUP3 DUP5 CALLDATACOPY PUSH1 0x0 SWAP3 ADD DUP3 SWAP1 MSTORE POP SWAP4 DUP6 MSTORE POP POP POP PUSH1 0x20 DUP1 DUP4 ADD DUP3 SWAP1 MSTORE PUSH1 0x1 PUSH1 0x40 SWAP4 DUP5 ADD DUP2 SWAP1 MSTORE DUP14 DUP4 MSTORE PUSH1 0x2 DUP3 MSTORE DUP4 DUP4 KECCAK256 PUSH1 0x4 DUP8 ADD SLOAD DUP5 MSTORE DUP3 MSTORE SWAP3 SWAP1 SWAP2 KECCAK256 DUP4 MLOAD DUP2 SSTORE SWAP1 DUP4 ADD MLOAD SWAP1 SWAP2 DUP3 ADD SWAP1 PUSH2 0x1795 SWAP1 DUP3 PUSH2 0x21BE JUMP JUMPDEST POP PUSH1 0x40 DUP3 ADD MLOAD PUSH1 0x2 DUP3 ADD SWAP1 PUSH2 0x17AA SWAP1 DUP3 PUSH2 0x21BE JUMP JUMPDEST POP PUSH1 0x60 DUP3 ADD MLOAD PUSH1 0x3 DUP3 ADD SSTORE PUSH1 0x80 SWAP1 SWAP2 ADD MLOAD PUSH1 0x4 SWAP2 DUP3 ADD DUP1 SLOAD PUSH1 0xFF NOT AND SWAP2 ISZERO ISZERO SWAP2 SWAP1 SWAP2 OR SWAP1 SSTORE DUP2 ADD SLOAD PUSH1 0x40 MLOAD DUP11 SWAP2 PUSH32 0xED8911B3DF733B7D5F75724158E54478EA12E30F49C9D31B5261879F5B76586F SWAP2 PUSH2 0x1807 SWAP2 SWAP1 DUP13 SWAP1 DUP13 SWAP1 PUSH2 0x22C3 JUMP JUMPDEST PUSH1 0x40 MLOAD DUP1 SWAP2 SUB SWAP1 LOG2 POP POP POP POP POP POP POP POP POP JUMP JUMPDEST PUSH1 0x0 DUP2 DUP2 MSTORE PUSH1 0x1 PUSH1 0x20 MSTORE PUSH1 0x40 SWAP1 KECCAK256 PUSH1 0x7 ADD SLOAD PUSH1 0x60 SWAP1 DUP2 SWAP1 DUP2 SWAP1 DUP2 SWAP1 DUP6 SWAP1 PUSH1 0xFF AND PUSH2 0x1856 JUMPI PUSH1 0x40 MLOAD PUSH3 0x461BCD PUSH1 0xE5 SHL DUP2 MSTORE PUSH1 0x4 ADD PUSH2 0x30F SWAP1 PUSH2 0x2026 JUMP JUMPDEST PUSH1 0x0 DUP7 DUP2 MSTORE PUSH1 0x1 PUSH1 0x20 MSTORE PUSH1 0x40 SWAP1 KECCAK256 PUSH1 0x4 ADD SLOAD DUP1 PUSH8 0xFFFFFFFFFFFFFFFF DUP2 GT ISZERO PUSH2 0x1881 JUMPI PUSH2 0x1881 PUSH2 0x2159 JUMP JUMPDEST PUSH1 0x40 MLOAD SWAP1 DUP1 DUP3 MSTORE DUP1 PUSH1 0x20 MUL PUSH1 0x20 ADD DUP3 ADD PUSH1 0x40 MSTORE DUP1 ISZERO PUSH2 0x18AA JUMPI DUP2 PUSH1 0x20 ADD PUSH1 0x20 DUP3 MUL DUP1 CALLDATASIZE DUP4 CALLDATACOPY ADD SWAP1 POP JUMPDEST POP SWAP6 POP DUP1 PUSH8 0xFFFFFFFFFFFFFFFF DUP2 GT ISZERO PUSH2 0x18C6 JUMPI PUSH2 0x18C6 PUSH2 0x2159 JUMP JUMPDEST PUSH1 0x40 MLOAD SWAP1 DUP1 DUP3 MSTORE DUP1 PUSH1 0x20 MUL PUSH1 0x20 ADD DUP3 ADD PUSH1 0x40 MSTORE DUP1 ISZERO PUSH2 0x18F9 JUMPI DUP2 PUSH1 0x20 ADD JUMPDEST PUSH1 0x60 DUP2 MSTORE PUSH1 0x20 ADD SWAP1 PUSH1 0x1 SWAP1 SUB SWAP1 DUP2 PUSH2 0x18E4 JUMPI SWAP1 POP JUMPDEST POP SWAP5 POP DUP1 PUSH8 0xFFFFFFFFFFFFFFFF DUP2 GT ISZERO PUSH2 0x1915 JUMPI PUSH2 0x1915 PUSH2 0x2159 JUMP JUMPDEST PUSH1 0x40 MLOAD SWAP1 DUP1 DUP3 MSTORE DUP1 PUSH1 0x20 MUL PUSH1 0x20 ADD DUP3 ADD PUSH1 0x40 MSTORE DUP1 ISZERO PUSH2 0x1948 JUMPI DUP2 PUSH1 0x20 ADD JUMPDEST PUSH1 0x60 DUP2 MSTORE PUSH1 0x20 ADD SWAP1 PUSH1 0x1 SWAP1 SUB SWAP1 DUP2 PUSH2 0x1933 JUMPI SWAP1 POP JUMPDEST POP SWAP4 POP DUP1 PUSH8 0xFFFFFFFFFFFFFFFF DUP2 GT ISZERO PUSH2 0x1964 JUMPI PUSH2 0x1964 PUSH2 0x2159 JUMP JUMPDEST PUSH1 0x40 MLOAD SWAP1 DUP1 DUP3 MSTORE DUP1 PUSH1 0x20 MUL PUSH1 0x20 ADD DUP3 ADD PUSH1 0x40 MSTORE DUP1 ISZERO PUSH2 0x198D JUMPI DUP2 PUSH1 0x20 ADD PUSH1 0x20 DUP3 MUL DUP1 CALLDATASIZE DUP4 CALLDATACOPY ADD SWAP1 POP JUMPDEST POP SWAP3 POP PUSH1 0x1 JUMPDEST DUP2 DUP2 GT PUSH2 0x848 JUMPI PUSH1 0x0 DUP9 DUP2 MSTORE PUSH1 0x2 PUSH1 0x20 SWAP1 DUP2 MSTORE PUSH1 0x40 DUP1 DUP4 KECCAK256 DUP5 DUP5 MSTORE SWAP1 SWAP2 MSTORE SWAP1 KECCAK256 DUP1 SLOAD DUP9 PUSH2 0x19C1 PUSH1 0x1 DUP6 PUSH2 0x22E6 JUMP JUMPDEST DUP2 MLOAD DUP2 LT PUSH2 0x19D1 JUMPI PUSH2 0x19D1 PUSH2 0x22F9 JUMP JUMPDEST PUSH1 0x20 MUL PUSH1 0x20 ADD ADD DUP2 DUP2 MSTORE POP POP DUP1 PUSH1 0x1 ADD DUP1 SLOAD PUSH2 0x19EC SWAP1 PUSH2 0x20CF JUMP JUMPDEST DUP1 PUSH1 0x1F ADD PUSH1 0x20 DUP1 SWAP2 DIV MUL PUSH1 0x20 ADD PUSH1 0x40 MLOAD SWAP1 DUP2 ADD PUSH1 0x40 MSTORE DUP1 SWAP3 SWAP2 SWAP1 DUP2 DUP2 MSTORE PUSH1 0x20 ADD DUP3 DUP1 SLOAD PUSH2 0x1A18 SWAP1 PUSH2 0x20CF JUMP JUMPDEST DUP1 ISZERO PUSH2 0x1A65 JUMPI DUP1 PUSH1 0x1F LT PUSH2 0x1A3A JUMPI PUSH2 0x100 DUP1 DUP4 SLOAD DIV MUL DUP4 MSTORE SWAP2 PUSH1 0x20 ADD SWAP2 PUSH2 0x1A65 JUMP JUMPDEST DUP3 ADD SWAP2 SWAP1 PUSH1 0x0 MSTORE PUSH1 0x20 PUSH1 0x0 KECCAK256 SWAP1 JUMPDEST DUP2 SLOAD DUP2 MSTORE SWAP1 PUSH1 0x1 ADD SWAP1 PUSH1 0x20 ADD DUP1 DUP4 GT PUSH2 0x1A48 JUMPI DUP3 SWAP1 SUB PUSH1 0x1F AND DUP3 ADD SWAP2 JUMPDEST POP POP POP POP POP DUP8 PUSH1 0x1 DUP5 PUSH2 0x1A78 SWAP2 SWAP1 PUSH2 0x22E6 JUMP JUMPDEST DUP2 MLOAD DUP2 LT PUSH2 0x1A88 JUMPI PUSH2 0x1A88 PUSH2 0x22F9 JUMP JUMPDEST PUSH1 0x20 MUL PUSH1 0x20 ADD ADD DUP2 SWAP1 MSTORE POP DUP1 PUSH1 0x2 ADD DUP1 SLOAD PUSH2 0x1AA2 SWAP1 PUSH2 0x20CF JUMP JUMPDEST DUP1 PUSH1 0x1F ADD PUSH1 0x20 DUP1 SWAP2 DIV MUL PUSH1 0x20 ADD PUSH1 0x40 MLOAD SWAP1 DUP2 ADD PUSH1 0x40 MSTORE DUP1 SWAP3 SWAP2 SWAP1 DUP2 DUP2 MSTORE PUSH1 0x20 ADD DUP3 DUP1 SLOAD PUSH2 0x1ACE SWAP1 PUSH2 0x20CF JUMP JUMPDEST DUP1 ISZERO PUSH2 0x1B1B JUMPI DUP1 PUSH1 0x1F LT PUSH2 0x1AF0 JUMPI PUSH2 0x100 DUP1 DUP4 SLOAD DIV MUL DUP4 MSTORE SWAP2 PUSH1 0x20 ADD SWAP2 PUSH2 0x1B1B JUMP JUMPDEST DUP3 ADD SWAP2 SWAP1 PUSH1 0x0 MSTORE PUSH1 0x20 PUSH1 0x0 KECCAK256 SWAP1 JUMPDEST DUP2 SLOAD DUP2 MSTORE SWAP1 PUSH1 0x1 ADD SWAP1 PUSH1 0x20 ADD DUP1 DUP4 GT PUSH2 0x1AFE JUMPI DUP3 SWAP1 SUB PUSH1 0x1F AND DUP3 ADD SWAP2 JUMPDEST POP POP POP POP POP DUP7 PUSH1 0x1 DUP5 PUSH2 0x1B2E SWAP2 SWAP1 PUSH2 0x22E6 JUMP JUMPDEST DUP2 MLOAD DUP2 LT PUSH2 0x1B3E JUMPI PUSH2 0x1B3E PUSH2 0x22F9 JUMP JUMPDEST PUSH1 0x20 SWAP1 DUP2 MUL SWAP2 SWAP1 SWAP2 ADD ADD MSTORE PUSH1 0x3 DUP2 ADD SLOAD DUP6 PUSH2 0x1B5A PUSH1 0x1 DUP6 PUSH2 0x22E6 JUMP JUMPDEST DUP2 MLOAD DUP2 LT PUSH2 0x1B6A JUMPI PUSH2 0x1B6A PUSH2 0x22F9 JUMP JUMPDEST PUSH1 0x20 SWAP1 DUP2 MUL SWAP2 SWAP1 SWAP2 ADD ADD MSTORE POP DUP1 PUSH2 0x1B80 DUP2 PUSH2 0x20B6 JUMP JUMPDEST SWAP2 POP POP PUSH2 0x1993 JUMP JUMPDEST PUSH1 0x0 DUP1 PUSH1 0x0 PUSH1 0x60 DUP5 DUP7 SUB SLT ISZERO PUSH2 0x1B9D JUMPI PUSH1 0x0 DUP1 REVERT JUMPDEST POP POP DUP2 CALLDATALOAD SWAP4 PUSH1 0x20 DUP4 ADD CALLDATALOAD SWAP4 POP PUSH1 0x40 SWAP1 SWAP3 ADD CALLDATALOAD SWAP2 SWAP1 POP JUMP JUMPDEST PUSH1 0x0 DUP1 PUSH1 0x40 DUP4 DUP6 SUB SLT ISZERO PUSH2 0x1BC7 JUMPI PUSH1 0x0 DUP1 REVERT JUMPDEST DUP3 CALLDATALOAD SWAP2 POP PUSH1 0x20 DUP4 ADD CALLDATALOAD PUSH1 0x1 PUSH1 0x1 PUSH1 0xA0 SHL SUB DUP2 AND DUP2 EQ PUSH2 0x1BE5 JUMPI PUSH1 0x0 DUP1 REVERT JUMPDEST DUP1 SWAP2 POP POP SWAP3 POP SWAP3 SWAP1 POP JUMP JUMPDEST PUSH1 0x0 PUSH1 0x20 DUP3 DUP5 SUB SLT ISZERO PUSH2 0x1C02 JUMPI PUSH1 0x0 DUP1 REVERT JUMPDEST POP CALLDATALOAD SWAP2 SWAP1 POP JUMP JUMPDEST PUSH1 0x0 DUP2 MLOAD DUP1 DUP5 MSTORE PUSH1 0x0 JUMPDEST DUP2 DUP2 LT ISZERO PUSH2 0x1C2F JUMPI PUSH1 0x20 DUP2 DUP6 ADD DUP2 ADD MLOAD DUP7 DUP4 ADD DUP3 ADD MSTORE ADD PUSH2 0x1C13 JUMP JUMPDEST POP PUSH1 0x0 PUSH1 0x20 DUP3 DUP7 ADD ADD MSTORE PUSH1 0x20 PUSH1 0x1F NOT PUSH1 0x1F DUP4 ADD AND DUP6 ADD ADD SWAP2 POP POP SWAP3 SWAP2 POP POP JUMP JUMPDEST DUP5 DUP2 MSTORE PUSH1 0x80 PUSH1 0x20 DUP3 ADD MSTORE PUSH1 0x0 PUSH2 0x1C68 PUSH1 0x80 DUP4 ADD DUP7 PUSH2 0x1C09 JUMP JUMPDEST DUP3 DUP2 SUB PUSH1 0x40 DUP5 ADD MSTORE PUSH2 0x1C7A DUP2 DUP7 PUSH2 0x1C09 JUMP JUMPDEST SWAP2 POP POP DUP3 PUSH1 0x60 DUP4 ADD MSTORE SWAP6 SWAP5 POP POP POP POP POP JUMP JUMPDEST PUSH1 0x0 DUP1 PUSH1 0x40 DUP4 DUP6 SUB SLT ISZERO PUSH2 0x1C9F JUMPI PUSH1 0x0 DUP1 REVERT JUMPDEST POP POP DUP1 CALLDATALOAD SWAP3 PUSH1 0x20 SWAP1 SWAP2 ADD CALLDATALOAD SWAP2 POP JUMP JUMPDEST PUSH4 0x4E487B71 PUSH1 0xE0 SHL PUSH1 0x0 MSTORE PUSH1 0x21 PUSH1 0x4 MSTORE PUSH1 0x24 PUSH1 0x0 REVERT JUMPDEST PUSH1 0x4 DUP2 LT PUSH2 0x1CE2 JUMPI PUSH4 0x4E487B71 PUSH1 0xE0 SHL PUSH1 0x0 MSTORE PUSH1 0x21 PUSH1 0x4 MSTORE PUSH1 0x24 PUSH1 0x0 REVERT JUMPDEST SWAP1 MSTORE JUMP JUMPDEST PUSH1 0x0 PUSH2 0x120 DUP12 DUP4 MSTORE DUP1 PUSH1 0x20 DUP5 ADD MSTORE PUSH2 0x1D00 DUP2 DUP5 ADD DUP13 PUSH2 0x1C09 JUMP JUMPDEST SWAP1 POP DUP3 DUP2 SUB PUSH1 0x40 DUP5 ADD MSTORE PUSH2 0x1D14 DUP2 DUP12 PUSH2 0x1C09 JUMP JUMPDEST PUSH1 0x1 PUSH1 0x1 PUSH1 0xA0 SHL SUB DUP11 AND PUSH1 0x60 DUP6 ADD MSTORE SWAP2 POP PUSH2 0x1D34 SWAP1 POP PUSH1 0x80 DUP4 ADD DUP9 PUSH2 0x1CC4 JUMP JUMPDEST DUP6 PUSH1 0xA0 DUP4 ADD MSTORE DUP5 PUSH1 0xC0 DUP4 ADD MSTORE DUP4 PUSH1 0xE0 DUP4 ADD MSTORE DUP3 ISZERO ISZERO PUSH2 0x100 DUP4 ADD MSTORE SWAP11 SWAP10 POP POP POP POP POP POP POP POP POP POP JUMP JUMPDEST DUP6 DUP2 MSTORE PUSH1 0xA0 PUSH1 0x20 DUP3 ADD MSTORE PUSH1 0x0 PUSH2 0x1D76 PUSH1 0xA0 DUP4 ADD DUP8 PUSH2 0x1C09 JUMP JUMPDEST DUP3 DUP2 SUB PUSH1 0x40 DUP5 ADD MSTORE PUSH2 0x1D88 DUP2 DUP8 PUSH2 0x1C09 JUMP JUMPDEST PUSH1 0x60 DUP5 ADD SWAP6 SWAP1 SWAP6 MSTORE POP POP SWAP1 ISZERO ISZERO PUSH1 0x80 SWAP1 SWAP2 ADD MSTORE SWAP4 SWAP3 POP POP POP JUMP JUMPDEST PUSH1 0x0 PUSH2 0x100 DUP11 DUP4 MSTORE DUP1 PUSH1 0x20 DUP5 ADD MSTORE PUSH2 0x1DBC DUP2 DUP5 ADD DUP12 PUSH2 0x1C09 JUMP JUMPDEST SWAP1 POP DUP3 DUP2 SUB PUSH1 0x40 DUP5 ADD MSTORE PUSH2 0x1DD0 DUP2 DUP11 PUSH2 0x1C09 JUMP JUMPDEST PUSH1 0x1 PUSH1 0x1 PUSH1 0xA0 SHL SUB DUP10 AND PUSH1 0x60 DUP6 ADD MSTORE SWAP2 POP PUSH2 0x1DF0 SWAP1 POP PUSH1 0x80 DUP4 ADD DUP8 PUSH2 0x1CC4 JUMP JUMPDEST DUP5 PUSH1 0xA0 DUP4 ADD MSTORE DUP4 PUSH1 0xC0 DUP4 ADD MSTORE DUP3 PUSH1 0xE0 DUP4 ADD MSTORE SWAP10 SWAP9 POP POP POP POP POP POP POP POP POP JUMP JUMPDEST PUSH1 0x0 DUP1 DUP4 PUSH1 0x1F DUP5 ADD SLT PUSH2 0x1E21 JUMPI PUSH1 0x0 DUP1 REVERT JUMPDEST POP DUP2 CALLDATALOAD PUSH8 0xFFFFFFFFFFFFFFFF DUP2 GT ISZERO PUSH2 0x1E39 JUMPI PUSH1 0x0 DUP1 REVERT JUMPDEST PUSH1 0x20 DUP4 ADD SWAP2 POP DUP4 PUSH1 0x20 DUP3 DUP6 ADD ADD GT ISZERO PUSH2 0x1E51 JUMPI PUSH1 0x0 DUP1 REVERT JUMPDEST SWAP3 POP SWAP3 SWAP1 POP JUMP JUMPDEST PUSH1 0x0 DUP1 PUSH1 0x0 DUP1 PUSH1 0x40 DUP6 DUP8 SUB SLT ISZERO PUSH2 0x1E6E JUMPI PUSH1 0x0 DUP1 REVERT JUMPDEST DUP5 CALLDATALOAD PUSH8 0xFFFFFFFFFFFFFFFF DUP1 DUP3 GT ISZERO PUSH2 0x1E86 JUMPI PUSH1 0x0 DUP1 REVERT JUMPDEST PUSH2 0x1E92 DUP9 DUP4 DUP10 ADD PUSH2 0x1E0F JUMP JUMPDEST SWAP1 SWAP7 POP SWAP5 POP PUSH1 0x20 DUP8 ADD CALLDATALOAD SWAP2 POP DUP1 DUP3 GT ISZERO PUSH2 0x1EAB JUMPI PUSH1 0x0 DUP1 REVERT JUMPDEST POP PUSH2 0x1EB8 DUP8 DUP3 DUP9 ADD PUSH2 0x1E0F JUMP JUMPDEST SWAP6 SWAP9 SWAP5 SWAP8 POP SWAP6 POP POP POP POP JUMP JUMPDEST PUSH1 0x0 DUP1 PUSH1 0x0 DUP1 PUSH1 0x0 PUSH1 0x60 DUP7 DUP9 SUB SLT ISZERO PUSH2 0x1EDC JUMPI PUSH1 0x0 DUP1 REVERT JUMPDEST DUP6 CALLDATALOAD SWAP5 POP PUSH1 0x20 DUP7 ADD CALLDATALOAD PUSH8 0xFFFFFFFFFFFFFFFF DUP1 DUP3 GT ISZERO PUSH2 0x1EFB JUMPI PUSH1 0x0 DUP1 REVERT JUMPDEST PUSH2 0x1F07 DUP10 DUP4 DUP11 ADD PUSH2 0x1E0F JUMP JUMPDEST SWAP1 SWAP7 POP SWAP5 POP PUSH1 0x40 DUP9 ADD CALLDATALOAD SWAP2 POP DUP1 DUP3 GT ISZERO PUSH2 0x1F20 JUMPI PUSH1 0x0 DUP1 REVERT JUMPDEST POP PUSH2 0x1F2D DUP9 DUP3 DUP10 ADD PUSH2 0x1E0F JUMP JUMPDEST SWAP7 SWAP10 SWAP6 SWAP9 POP SWAP4 SWAP7 POP SWAP3 SWAP5 SWAP4 SWAP3 POP POP POP JUMP JUMPDEST PUSH1 0x0 DUP2 MLOAD DUP1 DUP5 MSTORE PUSH1 0x20 DUP1 DUP6 ADD SWAP5 POP DUP1 DUP5 ADD PUSH1 0x0 JUMPDEST DUP4 DUP2 LT ISZERO PUSH2 0x1F6E JUMPI DUP2 MLOAD DUP8 MSTORE SWAP6 DUP3 ADD SWAP6 SWAP1 DUP3 ADD SWAP1 PUSH1 0x1 ADD PUSH2 0x1F52 JUMP JUMPDEST POP SWAP5 SWAP6 SWAP5 POP POP POP POP POP JUMP JUMPDEST PUSH1 0x0 DUP2 MLOAD DUP1 DUP5 MSTORE PUSH1 0x20 DUP1 DUP6 ADD DUP1 DUP2 SWAP7 POP DUP4 PUSH1 0x5 SHL DUP2 ADD SWAP2 POP DUP3 DUP7 ADD PUSH1 0x0 JUMPDEST DUP6 DUP2 LT ISZERO PUSH2 0x1FC1 JUMPI DUP3 DUP5 SUB DUP10 MSTORE PUSH2 0x1FAF DUP5 DUP4 MLOAD PUSH2 0x1C09 JUMP JUMPDEST SWAP9 DUP6 ADD SWAP9 SWAP4 POP SWAP1 DUP5 ADD SWAP1 PUSH1 0x1 ADD PUSH2 0x1F97 JUMP JUMPDEST POP SWAP2 SWAP8 SWAP7 POP POP POP POP POP POP POP JUMP JUMPDEST PUSH1 0x80 DUP2 MSTORE PUSH1 0x0 PUSH2 0x1FE1 PUSH1 0x80 DUP4 ADD DUP8 PUSH2 0x1F3E JUMP JUMPDEST DUP3 DUP2 SUB PUSH1 0x20 DUP5 ADD MSTORE PUSH2 0x1FF3 DUP2 DUP8 PUSH2 0x1F79 JUMP JUMPDEST SWAP1 POP DUP3 DUP2 SUB PUSH1 0x40 DUP5 ADD MSTORE PUSH2 0x2007 DUP2 DUP7 PUSH2 0x1F79 JUMP JUMPDEST SWAP1 POP DUP3 DUP2 SUB PUSH1 0x60 DUP5 ADD MSTORE PUSH2 0x201B DUP2 DUP6 PUSH2 0x1F3E JUMP JUMPDEST SWAP8 SWAP7 POP POP POP POP POP POP POP JUMP JUMPDEST PUSH1 0x20 DUP1 DUP3 MSTORE PUSH1 0x17 SWAP1 DUP3 ADD MSTORE PUSH32 0x456C656374696F6E20646F6573206E6F74206578697374000000000000000000 PUSH1 0x40 DUP3 ADD MSTORE PUSH1 0x60 ADD SWAP1 JUMP JUMPDEST PUSH1 0x20 DUP1 DUP3 MSTORE PUSH1 0x23 SWAP1 DUP3 ADD MSTORE PUSH32 0x416374696F6E206E6F7420616C6C6F77656420696E2063757272656E74207068 PUSH1 0x40 DUP3 ADD MSTORE PUSH3 0x617365 PUSH1 0xE8 SHL PUSH1 0x60 DUP3 ADD MSTORE PUSH1 0x80 ADD SWAP1 JUMP JUMPDEST PUSH4 0x4E487B71 PUSH1 0xE0 SHL PUSH1 0x0 MSTORE PUSH1 0x11 PUSH1 0x4 MSTORE PUSH1 0x24 PUSH1 0x0 REVERT JUMPDEST PUSH1 0x0 PUSH1 0x1 DUP3 ADD PUSH2 0x20C8 JUMPI PUSH2 0x20C8 PUSH2 0x20A0 JUMP JUMPDEST POP PUSH1 0x1 ADD SWAP1 JUMP JUMPDEST PUSH1 0x1 DUP2 DUP2 SHR SWAP1 DUP3 AND DUP1 PUSH2 0x20E3 JUMPI PUSH1 0x7F DUP3 AND SWAP2 POP JUMPDEST PUSH1 0x20 DUP3 LT DUP2 SUB PUSH2 0x2103 JUMPI PUSH4 0x4E487B71 PUSH1 0xE0 SHL PUSH1 0x0 MSTORE PUSH1 0x22 PUSH1 0x4 MSTORE PUSH1 0x24 PUSH1 0x0 REVERT JUMPDEST POP SWAP2 SWAP1 POP JUMP JUMPDEST PUSH1 0x20 DUP1 DUP3 MSTORE PUSH1 0x22 SWAP1 DUP3 ADD MSTORE PUSH32 0x4F6E6C792061646D696E2063616E20706572666F726D20746869732061637469 PUSH1 0x40 DUP3 ADD MSTORE PUSH2 0x37B7 PUSH1 0xF1 SHL PUSH1 0x60 DUP3 ADD MSTORE PUSH1 0x80 ADD SWAP1 JUMP JUMPDEST PUSH1 0x20 DUP2 ADD PUSH2 0x159B DUP3 DUP5 PUSH2 0x1CC4 JUMP JUMPDEST PUSH4 0x4E487B71 PUSH1 0xE0 SHL PUSH1 0x0 MSTORE PUSH1 0x41 PUSH1 0x4 MSTORE PUSH1 0x24 PUSH1 0x0 REVERT JUMPDEST PUSH1 0x1F DUP3 GT ISZERO PUSH2 0x21B9 JUMPI PUSH1 0x0 DUP2 DUP2 MSTORE PUSH1 0x20 DUP2 KECCAK256 PUSH1 0x1F DUP6 ADD PUSH1 0x5 SHR DUP2 ADD PUSH1 0x20 DUP7 LT ISZERO PUSH2 0x2196 JUMPI POP DUP1 JUMPDEST PUSH1 0x1F DUP6 ADD PUSH1 0x5 SHR DUP3 ADD SWAP2 POP JUMPDEST DUP2 DUP2 LT ISZERO PUSH2 0x21B5 JUMPI DUP3 DUP2 SSTORE PUSH1 0x1 ADD PUSH2 0x21A2 JUMP JUMPDEST POP POP POP JUMPDEST POP POP POP JUMP JUMPDEST DUP2 MLOAD PUSH8 0xFFFFFFFFFFFFFFFF DUP2 GT ISZERO PUSH2 0x21D8 JUMPI PUSH2 0x21D8 PUSH2 0x2159 JUMP JUMPDEST PUSH2 0x21EC DUP2 PUSH2 0x21E6 DUP5 SLOAD PUSH2 0x20CF JUMP JUMPDEST DUP5 PUSH2 0x216F JUMP JUMPDEST PUSH1 0x20 DUP1 PUSH1 0x1F DUP4 GT PUSH1 0x1 DUP2 EQ PUSH2 0x2221 JUMPI PUSH1 0x0 DUP5 ISZERO PUSH2 0x2209 JUMPI POP DUP6 DUP4 ADD MLOAD JUMPDEST PUSH1 0x0 NOT PUSH1 0x3 DUP7 SWAP1 SHL SHR NOT AND PUSH1 0x1 DUP6 SWAP1 SHL OR DUP6 SSTORE PUSH2 0x21B5 JUMP JUMPDEST PUSH1 0x0 DUP6 DUP2 MSTORE PUSH1 0x20 DUP2 KECCAK256 PUSH1 0x1F NOT DUP7 AND SWAP2 JUMPDEST DUP3 DUP2 LT ISZERO PUSH2 0x2250 JUMPI DUP9 DUP7 ADD MLOAD DUP3 SSTORE SWAP5 DUP5 ADD SWAP5 PUSH1 0x1 SWAP1 SWAP2 ADD SWAP1 DUP5 ADD PUSH2 0x2231 JUMP JUMPDEST POP DUP6 DUP3 LT ISZERO PUSH2 0x226E JUMPI DUP8 DUP6 ADD MLOAD PUSH1 0x0 NOT PUSH1 0x3 DUP9 SWAP1 SHL PUSH1 0xF8 AND SHR NOT AND DUP2 SSTORE JUMPDEST POP POP POP POP POP PUSH1 0x1 SWAP1 DUP2 SHL ADD SWAP1 SSTORE POP JUMP JUMPDEST DUP2 DUP4 MSTORE DUP2 DUP2 PUSH1 0x20 DUP6 ADD CALLDATACOPY POP PUSH1 0x0 DUP3 DUP3 ADD PUSH1 0x20 SWAP1 DUP2 ADD SWAP2 SWAP1 SWAP2 MSTORE PUSH1 0x1F SWAP1 SWAP2 ADD PUSH1 0x1F NOT AND SWAP1 SWAP2 ADD ADD SWAP1 JUMP JUMPDEST PUSH1 0x20 DUP2 MSTORE PUSH1 0x0 PUSH2 0x22BB PUSH1 0x20 DUP4 ADD DUP5 DUP7 PUSH2 0x227E JUMP JUMPDEST SWAP5 SWAP4 POP POP POP POP JUMP JUMPDEST DUP4 DUP2 MSTORE PUSH1 0x40 PUSH1 0x20 DUP3 ADD MSTORE PUSH1 0x0 PUSH2 0x22DD PUSH1 0x40 DUP4 ADD DUP5 DUP7 PUSH2 0x227E JUMP JUMPDEST SWAP6 SWAP5 POP POP POP POP POP JUMP JUMPDEST DUP2 DUP2 SUB DUP2 DUP2 GT ISZERO PUSH2 0x159B JUMPI PUSH2 0x159B PUSH2 0x20A0 JUMP JUMPDEST PUSH4 0x4E487B71 PUSH1 0xE0 SHL PUSH1 0x0 MSTORE PUSH1 0x32 PUSH1 0x4 MSTORE PUSH1 0x24 PUSH1 0x0 REVERT INVALID LOG2 PUSH5 0x6970667358 0x22 SLT KECCAK256 0x29 DUP11 0xAD 0xEF 0xAC JUMPI 0xED 0xF6 0xAB SWAP7 SWAP7 0xAC PUSH10 0x44B6A48457642C7A4DA6 DUP11 0xB7 LOG1 GASLIMIT SWAP16 PUSH9 0x6606064736F6C6343 STOP ADDMOD EQ STOP CALLER "},"methodIdentifiers":{"addCandidate(uint256,string,string)":"e6c62efc","advancePhase(uint256)":"81aaf4ce","candidates(uint256,uint256)":"7de14242","commitVote(uint256,bytes32)":"9da69180","createElection(string,string)":"bd27eca0","electionCount()":"997d2830","elections(uint256)":"5e6fef01","generateCommitHash(uint256,bytes32)":"c5adde98","getAllCandidates(uint256)":"f9ded646","getCandidate(uint256,uint256)":"4bd46448","getElection(uint256)":"9d710777","getVoterStatus(uint256,address)":"942f56bd","getWinner(uint256)":"4129b2c9","revealVote(uint256,uint256,bytes32)":"1d2cd644","voterStatuses(uint256,address)":"37ef0d2c"}}}}}